:020000041000EA
:1000000000B5324B212058609868022188439860DF
:10001000D860186158612E4B002199600221596106
:100020000121F02299502B49196001219960352056
:1000300000F044F80222904214D00621196600F024
:1000400034F8196E01211966002018661A6600F04E
:100050002CF8196E196E196E052000F02FF8012189
:100060000842F9D1002199601B49196000215960AB
:100070001A491B48016001219960EB211966A021F2
:10008000196600F012F800219960164914480160C1
:100090000121996001BC002800D000471248134993
:1000A000086003C880F30888084703B5996A0420EC
:1000B0000142FBD001200142F8D103BD02B5186610
:1000C0001866FFF7F2FF186E186E02BD00000240BE
:1000D000000000180000070000035F00212200005C
:1000E000F4000018222000A00001001008ED00E03C
:1000F00000000000000000000000000074B24E7A12
:1001000000200420F7010010C3010010C5010010F9
:10011000C1010010C1010010C1010010C101001097
:10012000C1010010C1010010C1010010C701001081
:10013000C1010010C1010010C9010010CB01001065
:10014000CD010010CD010010CD010010CD01001037
:10015000CD010010CD010010CD010010CD01001027
:10016000CD010010CD010010CD010010CD01001017
:10017000CD010010CD010010CD010010CD01001007
:10018000CD010010CD010010CD010010CD010010F7
:10019000CD010010CD010010CD010010CD010010E7
:1001A000CD010010CD010010CD010010CD010010D7
:1001B000CD010010CD010010CD010010CD010010C7
:1001C00000BE00BE00BE00BE00BE00BE00F04BF888
:1001D000103800BEF2EB8871E4F9041044FA041000
:1001E0003402001090A31AE700202149086006C8D5
:1001F00081F3088810471F48006800282FD10DA4FC
:100200000ECC002902D000F012F8F9E71A491B4A77
:10021000002000E001C19142FCD1194988471949E9
:1002200088471949884700BEFDE701C901C29A42C3
:10023000FBD3704744FA0410C0000020185F002070
:100240009C58051000000420000004209C58051054
:1002500000100420001004200000000070470B482C
:1002600030F059F80047EFF30580C0B27047000046
:1002700008ED00E0000000D0185F0020BC740320EF
:10028000313A0310F1E50210013B0310575600000C
:1002900006005250ABB3605370F304100600525086
:1002A000861C03020C9E0410060052505422A29D8C
:1002B00080F3041005005250DE65F4689C58051068
:1002C000F8B5C0460448054B10B5834203D0044B33
:1002D000002B00D0984710BD185F0020185F002049
:1002E0000000000006480749091A8B10C90FC918F9
:1002F00010B5491003D0044B002B00D0984710BD17
:10030000185F0020185F00200000000010B5074CA7
:100310002378002B09D1FFF7D5FF054B002B02D026
:10032000044800E000BF0123237010BD18600020C6
:1003300000000000D88C0310054B10B5002B03D033
:100340000449054800E000BFFFF7CCFF10BDC046E0
:10035000000000001C600020D88C031010B50123A1
:100360001340540C52081204120C002901D0002B27
:1003700006D0944207D084420DD8824210D310BDDB
:100380000A481CF025FC8442F9D0030022000849E9
:1003900008481BF066FB221A074906481BF061FB60
:1003A0000300064903481BF05CFBC046D88C0310D1
:1003B000008D031078EE03103C8D0310708D031038
:1003C000F0B5DE4657464E464546E0B583B080461A
:1003D0008A4601921F000C9D0D9B99460024002324
:1003E0000093002629E0E300EA189346E95AC90081
:1003F00002231943002201980BF0DAFF002804D0F1
:10040000009B01330093406824E05B465B88DB057A
:1004100005D4A3005A4652684946CA500CE05B46D0
:100420001A88254925481BF01CFBA3004B449B461A
:1004300010F05EF95B4618700134BC4227D2444587
:10044000D1D2E300EB185B889B052FD40136A300C3
:100450005246D058E300EB185A88FF231340012B73
:10046000E3D0022B05D0032B0BD1A3004A46D0507A
:10047000E2E7A3004B449B460FF086FF5B46186003
:10048000DAE70F4B0F4A6F210F4833F03DFB46452B
:100490000CD3019B1B68DB08009A934209D803B078
:1004A0003CBC90469946A246AB46F0BD07481CF0BE
:1004B0008FFB07481CF08CFBA08D031078EE031017
:1004C000B88D03109C8E0310EC8D0310148E031056
:1004D000388E031070B586B0040015001E0082002F
:1004E000AA1803A80BF028FF0B9B01930A9B00930B
:1004F000330003AA29002000FFF762FF06B070BD99
:1005000010B501481CF086FB588E031010B504008E
:10051000016188000BF0A9FE606110BD10B50400F8
:10052000002903D160690BF0D4FE10BDC0680BF048
:10053000D0FEF7E770B504000D0001290BDD40681F
:100540000BF093FEE0606368A36000280BD0256089
:100550000023636070BD03699A000121494240692C
:1005600035F03EFDF3E7034B034A3721034833F0F0
:10057000CBFAC046B08E0310988F0310C88E0310BC
:1005800010B503000268022A12D1406842189C6824
:10059000A24207D8DA68944660445A689446614497
:1005A000596010BD034B044A4321044833F0ACFAB0
:1005B0000020F2E7F08E0310B08F0310C88E0310F6
:1005C00010B503698B4209D90368012B0CDD890042
:1005D0004369CA5843689A4216D110BD0D4B0E4A62
:1005E0004B210E4833F090FA890043699C466144E0
:1005F0000B68013302D143680B60EEE7084B064AF3
:100600004E21064833F080FA064B034A5221034834
:1006100033F07AFA288F0310D48F0310C88E03109A
:10062000448F03106C8F031043685B18013B4942F1
:1006300019404160704770B50D001400FFF7A0FF2E
:10064000002807D0002303E00470240A013301309E
:10065000AB42F9D370BD000010B503698B4203D9DA
:1006600043698900C85810BD024B034ACB21034897
:1006700033F04AFAF08F0310289203101090031001
:1006800010B50368012B04DD002903DBFF23994328
:1006900007D110BDC721044B044A4900044833F078
:1006A00033FA04481CF0B6FA7491031084920310D4
:1006B000109003103890031010B50C000221FFF7C2
:1006C0005FFF002802D00470240A447010BD0000AF
:1006D000F8B50600002910DB02291FD013DC012920
:1006E00016D80025F227B521090239433000FFF75B
:1006F000E3FF002D21D02C0018E0114B114A6C2192
:10070000114833F001FA032902D10025FE27EAE758
:100710000239012399430D00FE27E4E70025FE2757
:10072000E1E70A493000FFF7C7FF7F3C7F2CF8D88C
:10073000074921433000FFF7BFFFB761F561F8BDFE
:100740005C9003101892031010900310FFB000008B
:1007500080B0000070B50500C469002C0DD07F2C5E
:1007600005D90A492800FFF7A7FF7F3CF7E7B0212A
:10077000090221432800FFF79FFFBD210902AB6951
:1007800019432800FFF798FF70BDC0467FB00000F6
:1007900070B50D0014000421FFF7F2FE002805D00B
:1007A00005702D0A45708470240AC47070BD000065
:1007B00010B5072A07D8072B0BD8DB0019431143C4
:1007C000FFF77AFF10BD064B064AE621064833F0D4
:1007D0009BF9064B034AE721034833F095F9C046DD
:1007E0006C9003103892031010900310889003103F
:1007F00010B5072A09D8D20007290BD811438C223B
:10080000D2011143FFF758FF10BD083AD200402330
:100810001A43F1E70839114380221143EFE7000042
:1008200070B505000C0016001112FF230B40072CB9
:100830001ED822028021890111431943FFF73CFF92
:10084000072C1BD820D8E3008021890019432143BD
:100850002800FFF731FFFF213140072C1AD824026E
:10086000C0229201144321432800FFF725FF70BDE9
:100870000B4B0C4AA7210C4833F046F90B4B0C4AA2
:100880007921094833F040F90A4B094A7A21064890
:1008900033F03AF9024B034AA721034833F034F905
:1008A000A4900310F0910310BC9003106C900310FF
:1008B000C89103108890031070B50500FFF7CCFEB7
:1008C0006B68C41A043C61104905490DE0231B0202
:1008D00019432800FFF7F0FE2B68022B01D00120FE
:1008E00070BDE40AE302002C06D0044A934201D012
:1008F0000020F5E70120F3E70120F1E700F8FFFF12
:10090000F8B507000D0011001C00FFF7A5FE7B687D
:10091000C01A061F002C01D00020F8BD2D02D021E6
:1009200009020D437310FF21194029433800FFF7D6
:10093000C3FE3B68022B01D00120EEE7FD339E434E
:1009400006D0044A964201D00020E6E70120E4E701
:100950000120E2E700FFFFFF70B50500FFF77CFE16
:100960006B68C41A043C21134905490DF0231B028E
:10097000194362101204120CF8231B021A432800B8
:10098000FFF706FF2B68022B01D0012070BDA40DDC
:10099000A305002C06D0044A934201D00020F5E7BD
:1009A0000120F3E70120F1E70000C0FFF8B50400E3
:1009B0000D001600476807291ED8C368002B01D018
:1009C0009B0720D1BB0725D4072D29D82D029021C4
:1009D000C90129432000FFF76FFE14492000FFF7EB
:1009E0006BFE3104090C2000FFF766FE310C20007D
:1009F000FFF762FE3800F8BDA4210D4B0D4A4900F7
:100A00000D4833F081F84C210C4B0A4AFF310A485B
:100A100033F07AF8BF2109022000FFF74DFED3E73B
:100A2000074B084AA721084833F06EF801E00000A0
:100A3000E49003104C9203101090031000910310E7
:100A4000A4900310F0910310BC900310F0B5DE46A3
:100A500057464E46C0B582B081460C0015000729A6
:100A600002D8FF239A4312D0072C20D8EB0F9A46C6
:100A7000002D23DB2F000197380033F083F88346E5
:100A8000002F1DD0380033F083F8060019E0072945
:100A900007D80C028021890121432943FFF70CFE6E
:100AA00022E0354B354AA721354833F02DF86C212B
:100AB000344B354AFF31354833F026F86F42DAE7D8
:100AC00000265B46F318202B14D8172B19D8019B4E
:100AD0001E0C40D0002D44DB3A0021004846FFF7B1
:100AE00065FF5346002B40D102B01CBC91469A468C
:100AF000A346F0BDBA21264B234A4900234833F0D0
:100B000003F83741FF213940072C12D823028027F0
:100B1000BF011F4339434846FFF7CEFD072C0ED8CF
:100B200013D8B101E000014321434846FFF7C4FD5B
:100B3000D7E7114B114AA721114832F0E5FF114BBD
:100B4000144A79210E4832F0DFFF134B114A7A2103
:100B50000B4832F0D9FF3A0021004846FFF760FE0B
:100B6000BFE77F4200239A46B6E7230022000B49E5
:100B70004846FFF71DFEB7E7A4900310F09103105D
:100B8000BC9003106C90031064920310109003103B
:100B900040910310C8910310889003104042000058
:100BA00070B505000E001400072A0CD8FFF768FD89
:100BB0002402FF210E4034439021090221432800E2
:100BC000FFF77AFD70BDCB21024B034A4900034871
:100BD00032F09AFF88900310A09203101090031037
:100BE00070B505000C00160007290DD81100FFF79D
:100BF00047FD2402FF210E4034439821090221437E
:100C00002800FFF759FD70BD9E21034B034AFF31B9
:100C1000034832F079FFC0466C900310B89203107D
:100C20001090031010B507290ED80368012B01DDC1
:100C3000002A10DB0902FF231A401143A8221202E6
:100C40001143FFF739FD10BDD321064B064A490079
:100C5000064832F059FFD421054B034A49000348A6
:100C600032F052FF6C900310D092031010900310DA
:100C70005091031070B505000C001100FFF7ECFC5B
:100C80006B68C21A012002430C3A21002800FFF7CA
:100C9000C7FD072C14D81AD8E300B2210902194362
:100CA00021432800FFF708FD230180210B400B4959
:100CB000194307231C4021432800FFF7FDFC70BDAA
:100CC0009421074B074A4900074832F01DFF2A21AB
:100CD000064B044AFF31044832F016FF7844000006
:100CE0006C90031004920310BC90031088900310C2
:100CF000F0B5C64600B506000C001700072903D85A
:100D0000072A01D81F2B1FD91F3B1D00072C00D914
:100D1000CEE0072F00D9CBE0FF232A009A436CD105
:100D20003F2D01D9BC4268D03F2D26D8BC4218D1F6
:100D3000AD00072C1BD82202C02189011143294391
:100D40003000FFF7B9FC6CE09D01F821C9000D40AF
:100D5000D021C9012943D70039432143FFF7ACFC17
:100D600066E03A0021003000FFF742FDE0E7544B17
:100D7000544AA721544832F0C7FE072C1FD822023C
:100D800080218901114329433000FFF795FC072C8E
:100D90001BD820D8E1008023194321433000FFF7FE
:100DA0008BFC072C1DD822D8BF01C0214901394333
:100DB000E700394321433000FFF77EFC31E0404B30
:100DC000404AA721404832F09FFE404B404A7921DB
:100DD0003D4832F099FE3F4B3D4A7A213A4832F085
:100DE00093FE3A4B3C4A8921374832F08DFE394B0D
:100DF000394A8A21344832F087FEBC4227D0AA0003
:100E000021003000FFF70CFD072C14D819D8A301DE
:100E1000C02149011943E300194321433000FFF782
:100E20004BFCE3002D49194321433000FFF744FCFC
:100E300004BC9046F0BD254B274A8921224832F058
:100E400063FE244B244A8A211F4832F05DFE0721AD
:100E50006140884601278F40B421090239433000A0
:100E6000FFF72AFCAA0041463000FFF7D9FC072C07
:100E700012D817D843469B01C02149011943E3000A
:100E8000194321433000FFF717FCBC210902394305
:100E90003000FFF711FCC4E70C4B0F4A89210A48C8
:100EA00032F032FE0B4B0C4A8A21074832F02CFEFE
:100EB000F2210B4B0B4A49000B4832F025FEC0468D
:100EC000A4900310F0910310BC9003106C900310D9
:100ED000C891031088900310DC910310C06F0000CC
:100EE00040EE0410F09203101090031070B504004F
:100EF000FFF7B2FB05006368C11A0439431C12D026
:100F0000CB1C10DACB0ADA02002B02D0134B9A4228
:100F100009D149104905490DE0231B02194320005E
:100F2000FFF7CAFB0FE0CB0ADA02002B02D00B4B13
:100F30009A4209D149104905490DE0231B02194382
:100F40002000FFF7B9FB70BDBF2109022000FFF7A9
:100F5000B3FB6B1CF7D002481BF05CFE00F8FFFFF0
:100F60008891031070B504000E0015001100FFF702
:100F700073FB6368C31A043B421C15D0DA1C13DAF6
:100F8000FF22190091430A1E02D00F498A420BD159
:100F90003102D022120211435B10FF263340194365
:100FA0002000FFF789FB0DE0360280235B007340D1
:100FB000D021090219432000FFF77EFB2900200001
:100FC000FFF794FF70BDC04600FFFFFF10B5043A65
:100FD000FF2314009C43231E02D00A4CA3420AD1D3
:100FE0000902D0231B0219435210FF231A40114358
:100FF000FFF762FB10BD044B044A0549054832F077
:1010000083FDC04600FFFFFFA0910310149303105F
:101010002A0200001090031010B50439CB0ADA023E
:10102000002B02D0094B9A4208D149104905490DBD
:10103000E0231B021943FFF73FFB10BD8C21044B3B
:10104000044A8900044832F05FFDC04600F8FFFF03
:10105000B4910310289303101090031070B505008D
:101060000B00140007222100FFF742FEE4008F214D
:10107000C90121432800FFF71FFB70BD10B5130005
:101080000A00024902481AF0ECFCC046008D031029
:1010900078EE0310F0B5DE4657464E464546E0B5BD
:1010A00089B007000E0005929846036803939B6879
:1010B0000193426894466344828991465A1C426077
:1010C0001B7803251D4000210022002400208346B8
:1010D0000194B44616001BE07B685A1C7A601B78AA
:1010E0009A11924601225046104088405C460443C3
:1010F000A3460420184088400543D81002408A4087
:1011000001981043019001221A408A401643013190
:101110005BB2002BE0DB019C049666463B0010337B
:10112000BB600023FB81380014304B469A0000213D
:1011300034F056FFB30043449A464B465B1B06937C
:101140001B1B5A1E019203339B00FB1804330793A9
:10115000B5421BD25B465B0713D5AB00079A043A36
:10116000079243441900701B17F078FC019B04336D
:101170009B00FB1858602E000022A44648464446B7
:101180003FE0320029000398FFF778FF5B465B07DA
:1011900008D5079B043B0793019B04339B00FB1876
:1011A000974A5A60059B002BE6D15B461B07E3D4A8
:1011B000049BE91AB14218D83200A4460498039C53
:1011C0004E4691460AE0411B8918B31A0431890042
:1011D000095903339B00FB18596001329542F2D83C
:1011E00064464B46B1461E00C6E732000398FFF73F
:1011F00045FF831A9100095903339B00FB1859607E
:1012000001329642F5D864468146059B002B03D1F6
:101210005B461B0700D4CAE002235A461A400192DB
:101220005A4613420CD100230293039BDE6800232D
:1012300098465B460793BB464746059B984625E084
:10124000059811F057F80290079B1860EDE74846A3
:10125000C31A581E03339B005B445B68002B06D106
:101260005244536804308000584443600DE0CA087B
:10127000644965481AF0F5FB019B002B15D0043238
:1012800053469A58029811F0C8F80137474511D2D1
:10129000FA0053469958002328199842ECD998002F
:1012A00080598842D3D00133F6E7CA0857495648D7
:1012B0001AF0D7FB5F46079B9B46069B04339B00B7
:1012C000FB1804330499CA1C9200039884466244B4
:1012D00002E001390433043A002905D018680028D7
:1012E000F7D110681860F4E7884649460A1D920055
:1012F000BA1804329A4208D901CB0028F6D1D21A82
:101300009210434940481AF0ACFB0191A946B246FD
:1013100026004446069B98460BE04D46A04656469E
:101320004544AD00AA59D2083A4937481AF099FB0A
:101330000134A64221D943461B1B5D1E03339B008B
:10134000FB185B68002BF3D15B461B07E5D5049BBC
:1013500004339B00039A98584B461B199B00524636
:10136000D158043000220BF023F80028D5D0436870
:101370000435AD007D196B60DAE7019B99467B6807
:10138000002400250026581C1B7801221A40A24088
:10139000154359103F220A406100091949008A404B
:1013A00016435BB2002B10DA01340300EBE7002C8C
:1013B00008D15B469B07E2D5002010F09BFF079BFE
:1013C0001860DCE714481BF003FC8019B8464F4650
:1013D0000BE0461C04783C1B0334A40044446068C2
:1013E00010F0AEF86060013D3000002DF1D14746AD
:1013F000786009B03CBC90469946A246AB46F0BD29
:10140000141204103C93031078EE03106C93031035
:1014100090930310C4930310F493031030B50500A8
:10142000047823095B00E920800018410323184059
:1014300001280DD061239C4363425C41E4B26B1CE4
:10144000022807D003280DD01B195B1B0B6030BD91
:10145000EB1CFAE7002AF7D01A7852B20133002ABF
:10146000FADBF1E7EB1CEFE710B5402812D026D8E5
:101470003C2801D03E2822D14239CBB22F2B1ED896
:101480009900154B5B589F46012308200DE001236E
:1014900008200AE0712912D88900104B5B589F463A
:1014A0000823082001E002230220002A00D0136054
:1014B00010BD01230120F8E701230120F5E70848CA
:1014C0001BF0A0F901230220EFE701230420ECE741
:1014D00004230420E9E7C0462C940310EC94031085
:1014E0001C94031010B5712845D88000244B1B585C
:1014F0009F46885640E0885C3EE05200505E3BE0EC
:101500005200505A38E09200885812F06EFD36E0D2
:101510009200885812F0E4FD31E09200885812F0F1
:1015200064FD2CE09200885812F0DAFD27E0D2002A
:1015300089180868496812F047FD20E0D200891830
:101540000868496812F05DFD19E09200885811F0B2
:1015500073FB14E0D20089180868496832F070FE05
:1015600011F06AFB0BE09200505808E092005058CE
:1015700012F03BFD03E0002040000123184310BDA2
:10158000B4960310F0B50600002A0CD1421E9B1839
:1015900001277F42002908D000229A56002A12DB38
:1015A0000020002103E00127F4E7002000210022B1
:1015B000B2420CD2040E090200021D7828432143D6
:1015C000DB190132F4E7012040420100EFE7F0BDF2
:1015D000F0B585B004000D0001921F001E6803AA3B
:1015E000FFF742FF402C2AD033183B603E3C62425A
:1015F0006241D2B25A21A942894149423300FFF7E0
:10160000C1FF06000F004F2D17D0532D22D0662D9D
:1016100027D0642D28D05A2D30D98022D20500231E
:1016200092197B411100002B23D103D180231B068B
:1016300099421ED2300012F0D8FC05B0F0BD0199DD
:10164000761A039BF618721E5E4216408C4666445C
:10165000043CC9E737F07AF90100300015F0EAF9E7
:10166000EBE711F0E9FAE8E732F0EAFD11F0E4FA0D
:10167000E3E73000390012F0A7FCDEE7002908D1CB
:1016800003D18023DB05984203D2300012F028FDFD
:10169000D3E73000390012F0B4FCCEE710B582B0C9
:1016A000040010000193002902D001AB1B1909E0CE
:1016B000220001A934F09AFC07E0013B197801707F
:1016C00001301400621E002CF7D102B010BD0000E2
:1016D000F0B5D64600B586B004000D0017000193A2
:1016E0000C9B9A461E6805AAFFF7BEFE0090402C90
:1016F00023D0009BF31852461360642D3CD0662D16
:1017000026D04F2D28D0BB0703D1314B3A689A42DF
:1017100052D038000EF038FE0700009B042B1BD976
:10172000002853DB0021009A300034F059FC3E2C95
:1017300012D1009B043BF6180EE00199761A059B26
:10174000F618721E5E4216408C466644043CD0E792
:1017500038000EF0A1FE07000098042800D90420EC
:101760003E3C61426141C9B23B003200FFF796FF47
:1017700006B004BC9246F0BD38000EF08DFE33F08A
:10178000F1FC0290039127003E3F79427941C9B2B2
:101790008B0006AA94466344103B1B683200042069
:1017A000FFF77CFF04367B1E9F41BF0006AB9C46C3
:1017B0006744103F3F68CFE73E3C61426141C9B298
:1017C0003300009A380012F08DFBD1E7FF21AAE721
:1017D00060F8031010B501280FD000280CD0712834
:1017E0000AD8422808D34238C4B22F2C04D8A0000B
:1017F0001B4C205887468B5410BD8B54FCE752007D
:101800008B52F9E752008B52F6E792008B50F3E7C8
:1018100092008B50F0E792008B50EDE792008B50D6
:10182000EAE7D2008A181360DB175360E4E7D200BE
:101830008A181360DB175360DEE792008C181800DB
:1018400033F01CFC2060D7E7D2008C18180032F06F
:10185000AFFC20606160CFE792008B50CCE7C046C0
:101860007C980310F8B505000F0014001E006428D2
:101870001AD0662811D04F2820D0B30703D1174BB8
:1018800032689A421DD030000EF07EFD0300220027
:1018900039002800FFF79EFF05E094000C1918009E
:1018A0000EF0FAFD2060F8BDD4000C1918000EF0FF
:1018B000F3FD33F057FC20606160F4E794003B5186
:1018C000F1E7002201004020FFF7CEFD0200444373
:1018D0003B190021300012F005FBE4E760F803102B
:1018E00070B582B00C0001A9206815F09DFC0500C0
:1018F000606815F065FC0023019A29000AF085FC58
:101900000500A06815F05CFC512807D00E4B9842EA
:1019100006D0502815D00D481AF074FF012600E0BB
:10192000002608200AF0A1FC0400094B03600023F4
:101930000022310028001AF0C5F96060200002B0D2
:1019400070BD0226EDE7C046B50200003C990310C9
:1019500074990310F0B58DB00400D0273F061D48E0
:101960003B689B001B581E69DD6819613B689B0042
:101970001B58DA6063689A0703D1174A18689042C7
:1019800018D068460EF01CFC002815D160681AF0CB
:1019900091F904000EF008FCD02109060D4A0B68ED
:1019A0009B009B581E610B689B009B58DD602000CC
:1019B0000DB0F0BD5960E4E7D0210906054A0B6877
:1019C0009B009B581E610B689B009B58DD60019833
:1019D0000EF00AFCEC7103209CF30310F0B585B007
:1019E0001500D0231B061B689B001D4A9B581F69CE
:1019F000DE68012305E000201BF0EAF8260027003E
:101A00000133022B0FD883420DD29A005458062C72
:101A1000F6D0A207EFD1134A26689642EBD1012BEC
:101A2000ECD02600ECE70868830703D10E4B026870
:101A30009A4210D0012201A90EF090FF029A0023D1
:101A40000199EC200AF0E1FB33003A0029001AF07A
:101A500039F905B0F0BD32003900FFF77BFFF8E738
:101A6000EC71032020E603107499031010B50222D4
:101A7000FFF7B4FF10BD10B50122FFF7AFFF10BD97
:101A800070B506000D000B4C0B4920000CF074FBE8
:101A9000002130000EF004FC084920000CF06CFB23
:101AA000002128000EF0FCFB054920000CF064FB2F
:101AB00070BDC046F8D30310B0990310B499031059
:101AC0007C86041070B506000D0000240CE0D521C2
:101AD000114B124A4900124832F016F8002300E078
:101AE0000023002B0FD101346B68A34212D96B681D
:101AF0009C42ECD2E300AA68D358002BF0D0042B10
:101B0000ECD00123EDE7E300AA68D158300012F0D1
:101B100001FDE8E770BDC046BC990310309A031080
:101B2000D099031070B506000D002B78002B0ED055
:101B3000280036F00BFF0400C11E280014F07AFFC5
:101B40000100300012F0E6FC01342D19EDE770BD04
:101B5000F0B585B00021002012F052FF039020491B
:101B6000FFF7B0FF1F490398FFF7DCFF1E4A03A9E8
:101B7000012012F09FFD01AA02A9039812F06EFF46
:101B8000029BDE1CB60800270DE0441E00280DD085
:101B9000164917480CF0F0FA2000F6E715491448EA
:101BA0000CF0EAFA0137B74213D23D00AB00019ABC
:101BB000D05815F01DFB01000D480CF0DDFAAD19F1
:101BC000029BAB42EAD91223181A0028DDDC12303E
:101BD000FBE7094906480CF0CFFA05B0F0BDC04656
:101BE00070FC031044D5041008E603104CD4031015
:101BF000F8D303107C860410F499031070B5040028
:101C00001C4B98421ED00EF015FB05001A4E1B49C6
:101C100030000CF0B1FA002120000EF041FBEA8800
:101C2000174930000CF0EAFE164B9D420DD0164BC2
:101C30009D420DD0AD6B002D06D00435002D03D094
:101C400000240BE0FFF784FF70BD65680435F5E7FD
:101C50002500EFE75968FFF713FF01346B68A342D3
:101C6000F2D9E300AA689446634418680028F1D1C9
:101C7000F3E7C04662120000F8D30310189A03106D
:101C8000209A03105CFD03106C18041010B5002896
:101C900005D1054905480CF06FFA062010BD08680B
:101CA000FFF7ACFFF9E7C046FC930410F8D303102C
:101CB0000B68834205D9013B1A782E2AF9D10B60B3
:101CC00000E00B60704710B5040009F0AFFD00287C
:101CD00000D010BD200021F091FEFAE710B50400FD
:101CE0001BF0E9FFFFF7EFFF02280DD06368991E94
:101CF0006D2220001CF05EF820001BF0DCFFFFF7D7
:101D0000E2FF022800D0002010BD000010B5040042
:101D10001BF0D1FFFFF7D7FF012806D003492000B1
:101D20001CF03CF82000FFF7D9FF10BDDC9A03102F
:101D3000F0B585B006000F00140002AA03A91B48E5
:101D400012F08CFE039B002B26D0002512E0010030
:101D500020001BF007FF2F2120001BF0C5FF3A00D9
:101D6000310020001BF0FEFE2000FFF7CFFF00280F
:101D700010D10135039BAB420BD900236360AB004C
:101D8000029AD05801A915F04FFA019A002AE6D01C
:101D9000DDE7002005B0F0BD3A00310020001BF067
:101DA000E1FE2000FFF7B2FFF4E7C0461470032005
:101DB00030B58FB004000D00100019F04BF9C200CF
:101DC00002200243B72120001AF022F96068D022D5
:101DD0001206204B11688900C95809690D911168D4
:101DE0008900C958C9680C9111688900C9580861EF
:101DF00012689200D358D86068460EF0E1F90028C6
:101E000017D100220021280005F0F0F919F052FF47
:101E10000EF0CAF90D98D02109060E4A0B689B00F6
:101E20009B5818610C980B689B009B58D8600FB0AA
:101E300030BD0D98D0210906064A0B689B009B58BF
:101E400018610C980B689B009B58D86001980EF0A5
:101E5000CBF9C046EC71032070B505000C000B688F
:101E6000DA0002231A43B7211AF0D2F86A68130085
:101E70000121200019F026FF70BD70B582B0060068
:101E80000D0008001BF017FF040001AA696809F0A3
:101E9000D5FC02280ED06B68E318033B1B786D2B32
:101EA0000ED020000AF0BFF901003000FFF7D4FF88
:101EB00002B070BD220001993000FFF779FFF7E70B
:101EC000200018F079FF010022003000FFF770FFBA
:101ED000EEE70000F0B5DE4657464E464546E0B513
:101EE000ABB000AF0D6803280AD9CB689946042827
:101EF0000AD90B695C10002B07DA00201AF082FC6B
:101F000000240623994600E000249C230822BA18E6
:101F1000D118280015F088F90600002C23D19C2345
:101F200008229446BC4463441B68002B00D1B8E0EF
:101F3000280015F045F912F0CFFF051E00D1BBE0D7
:101F40002E21300036F03AFC002803D04B46062BF9
:101F500000D1A9E02800BD462BB03CBC9046994674
:101F6000A246AB46F0BD013CD0231B061B689B007C
:101F7000CE4A9B581869BA2110F0A2F9051E22D04A
:101F8000C308152B26D0D0231B061B689B00C74A0D
:101F90009B58186904300022C5490AF009FA8246A4
:101FA0000C23F918280015F03FF98046FB684344DC
:101FB0003B615346002B21D108330822BA18D118AF
:101FC000FFF776FE1AE08D21BA4BBB4A4900BB48A9
:101FD00031F09AFDD0231B061B689B00B34A9B5827
:101FE0001869AA2110F06CF90500CCE70823082233
:101FF000BA18D1184046FFF75BFE2C00651E002C76
:10200000F4D13A6942452FD09C2308218C46BC4428
:1020100063441C68002C2BD14346D41AE31DDB0813
:10202000DB006946CB1A9D466D464346D21A4146AF
:10203000280033F0DBFF9C2308229446BC44634411
:102040001B68002B19D12100280018F069FFC5007A
:1020500002231D4319F011F806009C230822944620
:10206000BC4463441C605AE79549964819F0EEFC5D
:102070004346D31AE4180134D0E73B6942469B1A21
:102080002E22EA543B694246981A013028189C23B4
:1020900008229446BC4463441A68310033F0A6FF1A
:1020A000D1E700201AF0AEFB811B300018F038FF9A
:1020B00012F012FF05004DE70C2308203A18D21841
:1020C000802180333818C0181BF096FDAA46AB4615
:1020D00001240023984632E02F218C250823FA188A
:1020E00050191BF001FE4346E21AF1180823F818B4
:1020F00040191BF037FD0823FB185819FFF706FE9F
:1021000078603EE00100386812F0CEFE002D49D024
:10211000002D51D05346002B09D04346E11AF01848
:1021200018F0FEFE01002A00504619F071FF5B46D0
:10213000002B00D1B1E0631C9846AA4601349C23D1
:1021400008229446BC4463441B68A34200D2A6E024
:1021500002D0335D2E2BF1D12100300018F0E0FECB
:102160003860902308229446BC4463441B68002BCB
:10217000B2D18C336246D21821003000FFF7D8FD6F
:1021800078607B68002B12D19C3308229446BC44B3
:1021900063441B68A34205D1300012F067FE051EA0
:1021A000B0D1B3E73A684849464819F05AFC386854
:1021B00012F092FE0500ABE7386812F025FE05002C
:1021C0009C2308229446BC4463441B68A3420AD063
:1021D0007B68012B20D08C230822BA18D118280044
:1021E000FFF74BFE96E74B460E2BF1D17B68012B98
:1021F000EED0A232BA21406810F00FF92A00AA21CD
:10220000324810F00AF93B68DA0002231A43AA2187
:10221000686810F002F9DBE7933308229446BC4467
:1022200063441B683B6090236146CA1812687A6059
:102230001100386814F0FEFB0200CA21280019F0D2
:10224000E7FE902308218C46BC4463441B687B60F6
:1022500027318C236046C0181BF046FD1C498C2397
:102260000822B818C0181BF099FD8C230822BA1850
:10227000D018FFF733FD022807D090230822944698
:10228000BC4463447A681A6044E78C230822BA1875
:10229000D1182800FFF7F1FDEFE7AB464BE74B46BF
:1022A000062B00D056E65D4654E6C046EC7103208E
:1022B00052060000549A0310E09A0310709A03101B
:1022C0009C9A0310B8EA0310BC9A0310B06F032065
:1022D000D49A031000B583B06A46CA2119F00EFBE8
:1022E0000098431E9841C0B203B000BDC368002BE4
:1022F00005D1002903D08B0701D10B68C36070475B
:1023000003000069421C1A617047436A5B8B012B12
:1023100003D003699C4661440161704710B5040015
:10232000C36ADB6F806A9847A38B01339BB2A38398
:10233000626AD18C8B4200D9D38410BDF0B5C646F9
:1023400000B506001C00002907D08B0705D10F003F
:102350004B68FF201840904206D0002901D0300081
:10236000A04704BC9046F0BD1B0A9846002505E036
:10237000AB1C9B00D9593000A04701354545F7DB20
:10238000EFE7000010B58968024B9D22FFF7D6FFEA
:1023900010BDC0469559001010B58968024B6B22DC
:1023A000FFF7CCFF10BDC046F963001010B5040064
:1023B0008823C26AD3580021806A9847E36A5B6B1E
:1023C0000E21A06A9847CC23E26AD3580121A06A63
:1023D000984703212000FFF798FF10BD70B5040057
:1023E000C36A9B6C0022806A9847C023E26AD55872
:1023F000002300220021A06AA8472000FFF7D6FF93
:1024000070BD10B5C36A5B6D89680909806A0022D6
:10241000984710BD8068704770B504000800E36AF3
:102420001D6CFFF7F7FF0100A06AA84770BD10B54B
:1024300004000800110022681AF032FD636A43604C
:1024400000238360236A002B05D01A009B68002BB1
:10245000FBD1906010BD2062FCE70000F0B583B0B6
:102460000400038B5B070FD5428D013A002010E07A
:10247000002809D06A4611000500C0CDC0C119006E
:1024800060C960C003CA03C300236384002629E037
:10249000013A002AF8DBD300E16A8C46634459789C
:1024A0008D07E5D40028F3D10129F1D11800EFE719
:1024B0006A680A2A20D114E001332B7021E0638B73
:1024C000032B04D0238B1022134323831CE0686862
:1024D0000DF022FE012817DCF4E7638C5A1C62849D
:1024E0006B800136638DB34215DDF500E36A9C46CF
:1024F00065442378012BDBD0012B02D92B78012BEB
:10250000DAD02B78022BDAD02B78032BE5D06B783E
:10251000DB07E6D5E1E7002300E00133628D9A4254
:102520000DDDE16ADA0088188A5C042AF5D1427868
:10253000D207F2D4628C428001326284EDE7636894
:10254000002B47D0002500261AE0234B234A2449BC
:10255000244831F0D9FA0133628D9A420FDDE16AE5
:10256000DA0088188A5C052AF5D17A6841688A42BF
:10257000F1D14278D207E8D446800136EBE7013545
:1025800063685A8DAA4209DDDA6AEB00D718D35C7A
:10259000043BDBB2012BF2D80023DDE7002E19DD6E
:1025A000002303E04A8892194A800133628D9A42DF
:1025B00009DDE06ADA008118825C052AF2D14A78E6
:1025C000D207F2D5EEE7B6B2A38BF318A383638CE0
:1025D000F618668403B0F0BD049B0310E4A9031051
:1025E000930D0000289B0310F0B5DE4657464E467B
:1025F0004546E0B585B007000D0091469A46002A91
:1026000021DB5346002B24DB03DD0B8B0822134315
:102610000B834B462B847A6A138B30210B43138335
:102620007B6A1B78002B4AD1B423FA6AD458B86A63
:1026300053464A462900A04705B03CBC90469946FF
:10264000A246AB46F0BD284B284A2949294831F01B
:102650005BFA294B254A2949264831F055FA0134BD
:102660006B8DA34215DDEA6AE300D018D35C052B1D
:10267000F5D1796843689942F1D10398C36A5B69DF
:102680001E007A880023806AB04701239C46E344F9
:10269000E5E7039B46469846013643465B6A5A8DFA
:1026A000B24211DDDA6AF300D718D35C043BDBB227
:1026B000012BF1D800244346B0460393D0E700260F
:1026C00000239B46B846E8E747465B46002BABD065
:1026D000B823FA6AD458B86A534600934B465A4610
:1026E0002900A047A8E7C046509B031048AA031042
:1026F0005D020000289B0310649B03105E02000033
:10270000F0B583B00400019111001A008379581EBE
:102710008341DEB2A58AE78A0023A371A382E38204
:10272000114B2000FFF70AFEA368002B01D003B075
:10273000F0BDE18A00290CD0A38A002B09D1A03377
:10274000E26AD3580022A06A9847E36A5B6CA06AE9
:102750009847E28AA38A01992000FFF745FFA671F6
:10276000A582E782E3E7C046B548001070B50400D3
:102770000D004379012B06D02969AA684C2320005B
:10278000FFF7BEFF70BD436A5B8B0A000221FFF7B3
:102790004EFE2861F0E770B505000C004379012B6F
:1027A00008D0A669E268462331002800FFF7A8FF99
:1027B000F08A70BD13000A000721FFF738FEA06100
:1027C000EFE7000010B50400838B002B0BD0013B1A
:1027D00083838423C26AD358806A984701212000EA
:1027E000FFF793FD10BD034B034AEC21034831F082
:1027F0008BF9C046789B0310FCA90310289B03109B
:1028000070B504000D008368002B00D070BD11006E
:1028100004480FF0D3FFA06029002000FFF766FDF9
:10282000F4E7C04600EE0310F0B5DE4657464E46CC
:102830004546E0B58DB004000E00170042714162BC
:10284000002303610B78072B38D1012A06D9436B8B
:102850001B68020008323900006B9847F3689846FD
:10286000002B36D0032345461D404246134230D14B
:102870000792FF2352681A409146032A2FD16379A9
:10288000032B33D043461969002955D00F230B4041
:102890000693022B49D10B09752B50D03AD83E2B09
:1028A0004FD05E2B3CD143465B690B930AAA19219A
:1028B0000BA836F0C1F98146BA4674E0994A002166
:1028C000FFF79EFF0DB03CBC90469946A246AB4632
:1028D000F0BD954B954A9649964831F015F9CB21B4
:1028E000954B924A0901934831F00EF940460C305D
:1028F00009AA462136F0A0F90100636B9B68099A8A
:10290000206B9847B083A368002BBBD0079B1B6844
:10291000E360D7E7894A934202D14B460693C2E768
:10292000874A2000FFF76CFFCCE7864A2000FFF7BC
:1029300067FF02230693B6E702230693B3E70695E3
:10294000B1E701230693AEE7CE217F4B774A090119
:10295000784831F0D9F87D4A2000FFF751FFB1E700
:102960007B4B724A7B49734831F0CEF8012865D120
:10297000099B1A680F231340022B5FD12000FFF739
:10298000BFFC01005346012B08D9636BDB68099A31
:1029900012681209206B9847002856D0A368002BB4
:1029A00000D09CE001354D4500D39BE0AF000A9B71
:1029B000D9590029C8D08B07C6D1FF234A681340D4
:1029C000082BEFD0052BC6D18B68002BC8D09A07F7
:1029D000C6D1CA68002ABED1FF32586802402C2AEC
:1029E000B9D19E681D3A3240022AB4D1D868002875
:1029F000B1D08307AFD10590FF2342681340302B3D
:102A0000A9D13609083009AAA42136F015F988237E
:102A10009B009E42AAD08223FF339E421CD0DC231F
:102A20005B009E422DD05346012BB7D9636B1F69C3
:102A3000099B02003100206BB847AFE70A9BD959C8
:102A4000454A2000FFF7DCFE3CE70A9BD959434A80
:102A50002000FFF7D5FE35E701280BD1099B196847
:102A6000CB0707D55346012B98D94910206BFDF7AA
:102A7000DBFD93E70A9BD959394A2000FFF7C0FED6
:102A800020E701281AD9099B1B68DA0716D5524698
:102A9000012A83D95B100126B8460700AB461D000A
:102AA000BE421AD2B300099A9A58D3070DD55210D4
:102AB0002900206BFDF7BFFD0136F1E70A9BD959CC
:102AC000284A2000FFF79CFEFCE60A9B42469958E4
:102AD000254A2000FFF794FEF4E65D465EE7059B7D
:102AE000079313E76379012B07D9636B5B6806993A
:102AF000206B98476379042B04D0A368002B00D087
:102B000004E7DFE6236BDA68616A9B688D8B0869EE
:102B1000069903910021029101950091053104F07D
:102B200031FBEAE7949B0310B89B0310C8A903107C
:102B3000AE0C0000289B0310DC9B0310F102000088
:102B40000C9C03101C9C0310449C0310689C0310F5
:102B50008C9C0310ED0C0000B49C0310D09C03105F
:102B6000E09C0310FC9C0310249D031010B5024A46
:102B7000FFF746FE10BDC046489D031070B5050026
:102B80000E0014001378002B02D0052B0FD170BD5E
:102B9000013313701100406A1AF03DFA2378012BBB
:102BA000F5D1054A31002800FFF72AFEEFE7034A76
:102BB000FFF726FEEBE7C046689D0310889D0310D3
:102BC00070B50400FF234A681340092B0ED0458BD3
:102BD0000D4B9D420CD0A28BE38B9A420DD3E16A40
:102BE0008E6FD21AA06A2900B04770BD058BEFE73F
:102BF000064A2000FFF704FEEDE7054B054A0649AB
:102C0000064830F081FFC046FFFF0000AC9D031076
:102C1000CC9D0310A4AA03100F040000289B0310EE
:102C200070B514682509732D2BD1022912D1516872
:102C30000A09412A14D0144CA24215D0C224A4007F
:102C4000A24215D0C6246400A24215D104221A6003
:102C5000012017E00D4A2100FFF7D2FD012011E00D
:102C6000403A1A6001200DE002221A60012009E0BA
:102C700003221A60012005E0044AFFF7C1FD01208C
:102C800000E0002070BDC04655020000089E031001
:102C900070B50500002916D00F230B40022B04D07D
:102CA0000A4AFFF7ADFD00200EE00C0920000DF0F0
:102CB00033FA002808DA2200054906480FF04EFED4
:102CC000A860002000E0002070BDC0463C9E0310BC
:102CD000289E03102CEF0310F0B5C64600B582B055
:102CE00005000C00160008AA12789446426A108B60
:102CF00081071FD40F212140022921D0002C31D07F
:102D0000A1072FD10094FF2167683940B1422FD02D
:102D100099423CD0614500D06DE0A36819090223B7
:102D2000184310830527002900D06EE002B004BCD0
:102D30009046F0BD484A21002800FFF761FDF5E705
:102D40002109AB79002B06D0D38B0133D383002329
:102D500000930127E7E7938B0133938300230093CC
:102D60000127E0E73D4B3E4A3E493F4830F0CCFE6C
:102D7000A3681909AB79002B04D0D38B0133D3831B
:102D80000127D0E7938B013393830127CBE7AB79FE
:102D9000002B1AD10123AB71A168002931D00E3369
:102DA0000B40022B17D08B071FD14968FF230B4024
:102DB0004B2B1AD1138B04210B431383A36800936D
:102DC0009B68019319090327ADE7234A21002800D6
:102DD000FFF716FDAAE7138B04210B431383A368A7
:102DE00019090023009303279DE7204B1C4A204923
:102DF0001D4830F089FE1F4B194A1F491A4830F010
:102E000083FE0023009303278DE70022686A1AF0EF
:102E10009BF880460378002B18D10323037047707A
:102E20006B6A5B8B032B00D080E7482E00D07DE7D8
:102E3000009B002B00D179E7D9682800FFF728FF15
:102E4000030142465078184350706FE70B4A210047
:102E50002800FFF7D5FC69E7609E0310709E031001
:102E600080A903105D0B0000289B03108C9E0310AB
:102E70007C0B0000C49E0310840B0000F49E031022
:102E800000B583B050230093013B4E22FFF724FF8F
:102E900003B000BD00B583B04A230093013B482234
:102EA000FFF71AFF03B000BD10B50B004279012AED
:102EB00006D0426AC16A1431806A04F0FFF810BD7E
:102EC000406A1AF041F8FAE710B50B004279012A7E
:102ED00006D0426AC16A1C31806A04F0EFF810BD66
:102EE000406A04F0DBF8FAE710B50400436A5A8B35
:102EF000FFF751FC01002000FFF7E6FF10BD10B501
:102F00000B004279012A06D0426AC16A2431806AE4
:102F100004F0D4F810BD406A04F0C0F8FAE70000ED
:102F200030B583B005000C1E06D0CB0706D549107E
:102F3000C36A9B6B806A984703B030BD8B0731D062
:102F40000B090F210C40062C0FD00A2C13D0022C99
:102F500007D0042BF0D0C26A526BD9B2806A904776
:102F6000EAE71900FFF7A0FFE6E7C26AD26B806AC2
:102F700019009047E0E74279042A05D0C36A1B6C28
:102F8000806A06219847D7E701A9180018F07AF857
:102F9000EB6A1C6CAD6A019913F0F8FD0100280082
:102FA000A047C9E7C36A1B690968806A9847FF237D
:102FB000626813403A2B06D89B00064A9B582100B2
:102FC00028009847B8E7044B044A0549054830F003
:102FD0009BFDC046BCAB03100C9F031070A90310EF
:102FE0002E0B0000289B0310F0B5D6464F464646F0
:102FF000C0B504000D001600022A1CD1EF68002F96
:103000000FD0BB070DD1BA467A68FF2313408E2B31
:1030100015D0FF23524652681340312B36D0322B45
:1030200057D0424A29002000FFF7EAFB1CBC90461B
:103030009946A246F0BD8968FFF772FFDEE7130AE2
:103040009946022E11D0002398464B46013B43453A
:103050000BDD434602339B00524699582000FFF790
:103060005FFF01239C46E044EFE74B4601339B00A2
:10307000DB59002B03D09A0701D19A46C9E7D22128
:103080002B4B2C4A49002C4830F03EFD022E09D132
:10309000E36A9B6EA06A9847E36A1B6DA06A0121F0
:1030A0009847C3E7534699682000FFF739FF012E80
:1030B00005D0E36A1B6DA06A01219847B6E7E36A71
:1030C000DB6DA06A9847E36A1B6DA06A00219847F0
:1030D000ACE7233B524692681340022B0CD1012EE1
:1030E00011D0022E1CD0E36A5B6D5246916809092B
:1030F000A06A0122984799E7DB21104B0D4A49004D
:103100000D4830F001FDE36A9B6DA06A9847E36AC1
:103110005B6D524691680909A06A0022984785E7CD
:10312000E36A5B6EA06A9847DDE7C046909F031094
:10313000409F031028AA0310289B03106C9F0310C4
:1031400070B500290DD08B0715D00F230B40022B33
:1031500024D10909002A0BD0022A09D0FFF7A4FEC6
:103160001FE0F2313D4B3E4AFF313E4830F0CCFC8F
:10317000FFF7AAFE15E04C68FF2323402D2B18D043
:1031800006D8062B08D02C2B08D1FFF72DFF08E01E
:103190002E2B36D09D2B01D1002A03D0324AFFF7C7
:1031A0002FFB70BD220A0B000833002100F066F8E7
:1031B000F7E78C68002CF1D0A3071CD125006368C9
:1031C000FF241C40922C16D1002AE7D1EB68002B7B
:1031D0000AD09A0708D15A68FF241440952C28D0A9
:1031E000962C35D0AC2CD9D02B00083302220021EC
:1031F00000F044F8D5E71D4B194A1D49194830F035
:1032000083FC002ACAD18C68002C0DD0A30705D1FD
:103210002500FF2362681340922BD7D000230022A1
:10322000210000F02BF8BCE70023002100F026F875
:10323000B7E79B68002B05D1A9680023002200F0A6
:103240001DF8AEE70B4B064A0B49064830F05CFC14
:10325000120A0833A96800F011F8A2E7AC9F031026
:103260003CAA0310289B0310909F0310C89F0310D3
:103270001A02000008A003103F020000D0B5DE468D
:1032800057464E464446D0B580468B4616001F0032
:103290000B005A1E9341DBB29A46002917D01BD06F
:1032A00003230A001A4091460B4219D1FC334A68A5
:1032B0001340222B03D001235B4299460AE08E3350
:1032C000C26AD35832000021806A984702E0012385
:1032D0005B429946002412E001235B429946F9E7DC
:1032E00001235B429946F5E72E4A4046FFF788FAEC
:1032F0005CBC90469946A246B346D0BD0134B44268
:103300001AD2A300D9590029F8D08B07F6D1FF2390
:103310004A681340222BF1D14B460133E4D1B0234C
:103320004246D26AD358A146D144321B013A49469B
:103330004046806A9847E1E74B4601330DD05B4633
:10334000002B08D04B46002B11D15B469968002218
:103350004046FFF7F5FE002417E0AC234246D26A50
:10336000D358524691194246906A9847E7E700229F
:1033700059464046FFF7E4FEEDE7A300DB599968A4
:1033800000224046FFF7DCFE0134B442B0D253467F
:10339000E3184B45F1D0A300F95800224046FFF74F
:1033A000CFFEF1E730A00310F8B5DE4657464E4693
:1033B0004546E0B507000C0015001E00080035F07A
:1033C000DBFB00280CD0002D04D1FB6ADB6EB86A51
:1033D000310098473CBC90469946A246AB46F8BDA2
:1033E000200035F081FB00281CD1002C0FD0A30752
:1033F0000DD1A1466268130A9846FF2313401E2B85
:1034000018D01F2B4FD0202B51D02D2B58D021005E
:103410003800FFF785FDFB6A1B6FB86A3200290090
:103420009847D7E7002DD5D0FB6ADB6EB86A31002C
:103430009847CFE7002D34D13800FEF761FF83466F
:1034400000239A460EE001226A40D2B2534602336C
:103450009B00494659585B463800FFF7A5FF0123FA
:103460009C46E2444346013B5345ECDC02339B005F
:10347000195933002A003800FFF796FFFB6ADB6A10
:10348000B86A59469847A5E7A31C9B004A46995835
:1034900033002A003800FFF787FF01344445F3DB8F
:1034A00098E70024FAE7002DC6D10024F6E70122B0
:1034B0006A40D2B2A16833003800FFF775FF89E790
:1034C000A368002B0FD09A0716D15A68FF23134028
:1034D000922B11D1002D00D17CE7FB6ADB6EB86A1C
:1034E0003100984776E7002D00D073E7FB6ADB6E6A
:1034F000B86A310098476DE7C221034B034A49007F
:10350000034830F001FBC046C89F03101CAA0310FB
:10351000289B0310F0B5D6464F464646C0B5050079
:103520000C0092469846FEF7EBFE07002800FEF7D7
:10353000E7FE8146EB6ADB6A3900A86A98478C236C
:10354000EA6AD3584946A86A98470022A168280029
:10355000FFF7F6FD2469002C0CD0FF2163681940A9
:10356000AD2927D13B000022A1682800FFF71CFFEE
:10357000E468F0E751462800FFF7D2FC6B6A19783F
:10358000062908D0A823EA6AD35842469200053299
:10359000A86A984721E0CC23EA6AD3580021A86A98
:1035A000984701212800FEF7B0FEEB6A1B6EA86A5F
:1035B000984712E0AC2924D1E1682800FFF7B0FC5D
:1035C0008823EA6AD3580121A86A98474346013301
:1035D000524621002800FFF79DFFEB6ADB6E3900A1
:1035E000A86A9847EB6ADB6A4946A86A984790231D
:1035F000EA6AD358A86A98471CBC90469946A246E6
:10360000F0BDBC21024B034A0901034830F07CFAAB
:103610004CA00310A0A90310289B0310F8B50400C8
:103620000D0011004271456200230361C36A1B68EB
:103630002A00806A984706212000FEF766FE63791B
:10364000012B49D0EE68002E06D0B30704D1FF232A
:10365000726813403F2B43D02B78002B53D0072B9D
:1036600068D0022B00D1A6E0DA1ED2B2032A00D91C
:1036700038E1002E00D1D9E0B30700D0D6E073685E
:103680001B0A022B00D0D7E0F768002F00D1D9E049
:10369000BB0700D0D6E0FF237A681340AC2B00D0E4
:1036A000D0E06379012B00D1D2E0E36A1B69316875
:1036B000A06A98472B78032B00D1D1E0042B00D1CE
:1036C000F7E0052B00D0D2E09B33E26AD358032207
:1036D0000021A06A9847CAE00023AB84EB84B1E7DD
:1036E0002B78002B09D1B1682000FFF719FCC42307
:1036F000E26AD358A06A984713E0AC4BAC4AAD4994
:10370000AD4830F001FA31002000FFF709FCE36A10
:103710005B6B0E21A06A9847C423E26AD358A06A63
:103720009847E36A5B68A06A9847A38B002B00D098
:1037300036E1F8BD002E1ED0B3071CD1FF237268FE
:103740001340032B1DD16379012B20D07169200018
:10375000FFF7E6FBE36A9B68A06A98470028E0D180
:10376000E36A5B6B0E21A06A9847C423E26AD358D0
:10377000A06A9847D5E7914B8D4A91498E4830F021
:10378000C3F9904B8A4A90498B4830F0BDF9002329
:10379000A3718E4B4622F1682000FEF7CFFD6B8BA4
:1037A000032BD3D131692000FFF772FA8301288BF4
:1037B00018432883CAE7002E23D0B30721D17368AA
:1037C0001B0A032B23D1E36A1B693168A06A98475F
:1037D0006379012B21D0F1682000FFF7A1FB2B8B2F
:1037E000DB0708D5E36A1B6EA06A9847E36A5B6B48
:1037F0000E21A06A9847C423E26AD358A06A98476A
:103800008FE76E4B6A4A72496B4830F07DF9714B15
:10381000674A7149684830F077F90023A3716F4B0C
:103820004C22B1682000FEF789FDD4E7634B604A63
:103830006B49614830F068F96A4B5D4A6A495E48F5
:1038400030F062F9694B5A4A69495B4830F05CF9DB
:1038500003220121606A19F077FB0123AB8324E77F
:103860009D33E26AD35801220021A06A98472B7841
:10387000062B26D1E36A5B6CA06A984701212000E1
:10388000FFF712FBE36A5B6CA06A9847E36A5B6C24
:10389000A06A9847B268002339002000FFF73AFE7B
:1038A0002B78062B18D0C423E26AD358A06A984715
:1038B00037E79C33E26AD35802220021A06A984776
:1038C000D5E701212000FFF7EFFA8823E26AD358F9
:1038D0000121A06A9847DDE7E36A5B6B0E21A06ACD
:1038E0009847E0E7012B37D1002E3BD0B30739D101
:1038F000FF2372681340382B3AD16379012B3DD0F6
:1039000017212000FFF7D0FA16212000FFF7DCFA7C
:10391000E36ADB6BB2681109A06A98471A2120009C
:10392000FFF7D2FA31692000FFF7FAFA0A212800DE
:1039300019F0F9FA002827D00378032B2AD0E36A7C
:103940005D69428800230A21A06AA847C423E26A6D
:10395000D358A06A9847E4E6264B154A26491648EC
:1039600030F0D2F8154B124A2449134830F0CCF805
:10397000234B0F4A2349104830F0C6F803220A218E
:10398000280019F0E1FABBE71F4B094A1F490A4812
:1039900030F0BAF8E36A5B6B0E21A06A9847D5E76E
:1039A0001B4B034A1B49044830F0AEF898A00310A3
:1039B000B8A903100A0C0000289B0310B89B031041
:1039C000160C0000DC9B0310180C0000952E001054
:1039D0002F0C0000B4A00310310C0000812E001049
:1039E000480C0000E0A003104A0C00000CA10310DA
:1039F0004B0C000048A10310790C00007A0C000069
:103A000064A103107C0C000094A103108E0C000034
:103A1000A0A103109A0C0000F0B5CE46474680B531
:103A200091B081460D0014003422002103A832F029
:103A3000D7FA029502AB1C7101235B4202AA1383E1
:103A40005383684ABE33FF33D35C4A461268002171
:103A500002A8FEF7ECFC060003F00AFB80460C907F
:103A6000614B0D930A9D002715E00122290002A851
:103A7000FFF7D4FD002403E0280019F0CCFA01344C
:103A80006B8DA34214D9EA6AE300D118D35C012BF1
:103A9000F5D1F1E7AD68002D0FD0049B002B0CD1C0
:103AA0006B8B042BE1D10122290002A8FEF7BCFE9A
:103AB000069BBB42EED91F00ECE70A9C03E0200006
:103AC000FEF7CCFCA468002C02D0049B002BF6D09F
:103AD0003900404603F0D1FA0A9C00252AE00E9BEB
:103AE000002B11D000230C93404B0F930322210095
:103AF00002A8FEF799FE049B002B1AD10422210094
:103B000002A8FEF791FE14E0380004F08FF80E9042
:103B1000E8E7002D1ED0364B0D930C9502222100B4
:103B200002A8FFF77BFD049B002B1AD0049B002BFF
:103B30001DD0A468002C20D0049B002B1DD1638BCA
:103B4000042BCCD0023B012BE3D943460C93264BEC
:103B50000D93E3E73A0006A904A807F0F5FA05007B
:103B6000D9E70322210002A8FFF758FDDEE704226F
:103B7000210002A8FFF752FDDBE7049B002B0CD0CD
:103B80000B9BD96802A8FEF7B1FB0B9B0193DB8A64
:103B9000059A049802990EF01DFF404603F075FA4D
:103BA000002D02D0280007F0EDFA0E98002801D071
:103BB00004F051F8484635F02FF8356904E0B46850
:103BC000300019F0A7F92600002EF8D1049800283B
:103BD00005D1280011B00CBC90469946F0BD0CF000
:103BE00003FBC046706F0320ECAF031070B50310E9
:103BF0000CBF031010B50400436A1B78072B01D0DB
:103C0000022B12D18968002913D1E36A5B6B0E3154
:103C1000A06A9847CC23E26AD3580021A06A98474B
:103C200001212000FEF771FB10BD104AFEF7E8FDF0
:103C3000FAE78B0704D1FF234A681340AF2B0DD05E
:103C40002000FFF76DF9CC23E26AD3580021A06A67
:103C5000984701212000FEF758FBE5E7896820001E
:103C6000FFF75EF92000FEF7A1FBDDE7BCA1031022
:103C700070B504000D0016000F230B40022B15D168
:103C800031002000FFF74CF9E36A9B6DA06A98476A
:103C9000666A3378033BDBB2032B01D87368636237
:103CA00029092000FFF710F9666270BD014AFEF78E
:103CB000A7FDE5E7909F031010B5CA688968FFF774
:103CC000D7FF10BD70B5040016004B681B0A022B0D
:103CD00021D1CD68002D24D0AB0722D1FF236A6803
:103CE0001340AC2B1DD14379012B20D0002300229F
:103CF00069692000FEF778FCE9682000FFF710F9F9
:103D0000062E1CD0BC23E26AD558A06A00230022EC
:103D10000121A84770BD0D4B0D4A0E490E482FF0EA
:103D2000F3FE0E4B0A4A0E490B482FF0EDFE436A94
:103D30005B8B0A003100FEF77AFB6861D6E78823C7
:103D4000E26AD3580021A06A9847DBE7E0A003109D
:103D5000FCA80310A2090000289B03100CA103106B
:103D6000A3090000F0B5D6464F464646C0B586B01A
:103D70008146039102921E0005AAA42103A834F0F3
:103D80005BFF8246002400230193009398461D00A8
:103D900036E0EB0703D401231D4300972FE05B4A75
:103DA00039004846FEF72CFD68E0AB0703D4022338
:103DB0001D43019723E0564A39004846FEF720FD8F
:103DC0005CE09A68B9684846FFF752FF013616E092
:103DD000504A39004846FEF713FD4FE006223900ED
:103DE0004846FFF76FFF013609E0002D41D14346F9
:103DF000002B49D139004846FFF792F801360134CB
:103E0000544547D2A300059A9F58002FEDD0BB0719
:103E1000EBD1FF237A681340A62BBAD0A72BC4D0CE
:103E2000A82BE2D1FB68002B06D09A0704D1FF2211
:103E300059680A40AA2AC4D0002B06D09A0704D198
:103E40005A68FF231340AC2BC8D0B9680F230B402E
:103E5000022BBDD14B46DB6ADB6B09094A46906AEF
:103E60009847F9684846FFF75BF801239C46E04411
:103E7000C5E7294A39004846FEF7C2FC06B01CBC1B
:103E800090469946A246F0BD244A39004846FEF7BE
:103E9000B7FCF3E74746A846002D0FD0009B002B48
:103EA0001AD0009B99684846FFF73AF8019B002B0F
:103EB00019D0019B99684846FFF732F8029B002B06
:103EC00018D0C0234A46D26AD4584B46986A434613
:103ED0003A003100A047D1E74B46DB6A5B6C4A46AB
:103EE000906A9847E2E74B46DB6A5B6C4A46906A09
:103EF0009847E3E7BC234A46D26AD4584B46986AAF
:103F000043463A003100A047B8E7C046D8A10310A5
:103F1000F0A1031008A203102CA2031048A2031062
:103F200070B504000D004379012B23D0E36ADB6CEC
:103F3000A06A98476E690023002231002000FEF736
:103F400053FBE36ADB6BF18AA06A9847E9680029B2
:103F500009D003231A000A400B4204D1FC334868FD
:103F60000340A32B0DD0022300222000FFF7FAFE0E
:103F7000F08A70BD13000A000121FEF758FA68614B
:103F8000D4E71100EFE710B50400436A5A8BFFF73E
:103F9000C7FF01002000FEF797FF10BD10B589682C
:103FA00000230022FFF7DEFE10BD70B504000D00F7
:103FB000C968FEF7B5FFA9682000FEF7B1FF70BD24
:103FC00070B504000D00FF234A681340342B19D04C
:103FD000C36A5B6B0E21806A9847FF236A681340AF
:103FE000352B1DD1AD68002D20D1E36A5B6B0E210E
:103FF000A06A9847A023E26AD358A06A042202214B
:10400000984770BD8968FEF78BFFED68002D01D0E1
:10401000AB07E2D03B4B3C4A3C493D482FF074FD96
:104020003C4B394A3C493A482FF06EFDAB075DD115
:10403000FF236A6813409A2B0DD09B2B26D02900B2
:104040002000FEF76DFFA023E26AD358A06A042285
:1040500002219847D5E7E36A5B6B0E21A06A984777
:10406000A968002907D1A023E26AD358A06A0422D4
:1040700002319847C5E72000FEF752FFA023E26A0D
:10408000D358A06A042203219847BAE7A968200000
:10409000FEF746FFEB68002B11D09A070FD1FF22E5
:1040A00059680A409C2A10D19968002913D1A0238D
:1040B000E26AD358A06A042202319847A1E7114B63
:1040C000114A164912482FF01FFD154B0E4A15498B
:1040D0000F482FF019FD2000FEF722FFA023E26A0F
:1040E000D358A06A0422032198478AE729002000B8
:1040F000FEF716FFA023E26AD358A06A0422022129
:1041000098477EE76CA203105CA903107E0A0000AA
:10411000289B031094A20310850A00009A0A00004D
:10412000C8A203109C0A000010B504008968FEF7BD
:10413000F7FEE36A1B6DA06A0021984710BD0000DE
:10414000F0B5CE46474680B583B0040016008D68B2
:10415000002D0AD1002A00D1CBE0A023C26AD35897
:10416000806A022200219847C3E0AB0700D0B5E087
:10417000FF236A681340372B23D09F2B00D0ADE07C
:10418000E868002830D09C3B1F00074003422BD139
:10419000FF2342681340A12B2CD0AC2B00D091E020
:1041A000AB68002B07D09A0705D15A68FF2313404C
:1041B000372B00D18CE0052229002000FFF782FD7B
:1041C00097E0002E06D06933C26AD358022201213B
:1041D000806A984729002000FEF7A2FEA423E26A25
:1041E000D358A06A984784E0444B454A454946481D
:1041F0002FF08AFC083001AAA22134F01DFD804670
:10420000A968002906D08B0704D1FF234A68134010
:10421000372B05D02000FEF783FE0023994623E0CC
:10422000002E06D06933E26AD358411C0222A06AEC
:104230009847A9682000FEF773FEA423E26AD358CA
:10424000A06A9847012399460EE000262000FEF759
:1042500067FE4B46002B21D0002E19D0A423E26A22
:10426000D358A06A9847013747451FD2BB00019A2F
:10427000D1580029E9D08B0706D1FF234A681340A3
:10428000372B03D00026E1E70026DFE70126DDE734
:104290001E4A29002000FEF7B3FA2AE0002EE2D0E1
:1042A0001B4A29002000FEF7ABFA22E04B46002B08
:1042B0001FD1A033E26AD35841460131A06A0322DC
:1042C000984716E0134B0E4A13490F482FF01CFC79
:1042D000042229002000FFF7F5FC0AE02900200055
:1042E000FEF71EFEA023E26AD358A06A0322012132
:1042F000984703B00CBC90469946F0BD6CA20310E1
:1043000040A90310120A0000289B0310F8A2031012
:1043100018A3031038A303104D0A000010B50122A2
:10432000FFF70EFF10BDF0B5C64600B5050016003C
:10433000002907D100239846002E12D073681F0A67
:1043400000240BE0FEF7ECFD01239846F4E7A31CE4
:104350009B0099592800FEF7E3FD0134BC42F6DBCF
:10436000B844A023EA6AD358A86A00224146984775
:1043700004BC9046F0BD000010B58968002919D032
:104380008B071BD1FF234A681340922B16D1CA68B2
:10439000002A19D0930708D1FF2354682340952B96
:1043A00018D0962B24D0AC2B26D00A000021FFF782
:1043B000BAFF10BD0022FFF7B6FFFAE7104B114A13
:1043C000114912482FF0A0FB114B0E4A11490F481A
:1043D0002FF09AFB9368002B04D189680022FFF725
:1043E000A2FFE6E70C4B074A0C4908482FF08CFB6C
:1043F0008968FFF798FFDCE70622FFF763FCD8E740
:10440000C89F031014A90310BF090000289B0310C4
:1044100068A30310C109000008A00310C60900002A
:1044200010B50A000021FFF77EFF10BDF8B5CE469B
:10443000474680B507000C008968FEF771FDE36808
:10444000002B4FD00C229046A0445D68F3322A40E6
:104450008E2A0BD001257B6A1B78072B0BD0A26814
:104460000F231340022B5CD0002491E02D0A863AE2
:1044700090469844EFE7A26808331340022BEED130
:1044800012099A2AEBD143461A68FF2351680B4060
:10449000302BE4D19368002BE1D10A213800FEF7DC
:1044A00003FD7A6AD36A528D002A15D05978C9075C
:1044B00002D4013A0833F7E759683800FEF7F4FCF4
:1044C000022D13D8BC23FA6AD458002300220221FB
:1044D000B86AA04701245BE043461968414A3800A6
:1044E000FEF78EF90CBC90469946F8BD43465A68D3
:1044F0005368DBB2322BE5D143469C686368DBB27C
:10450000302BDFD1FB6A9B6C916809090122B86AE4
:10451000984700230122A1683800FFF723FC0324F9
:1045200036E012094333FF339A4201D000242FE0D2
:1045300043461A68FF2351680B40302B01D00024FA
:1045400026E09468002C23D02D3B1A002240234201
:1045500045D16168FC330B402F2B01D0140017E0CC
:104560008D33FA6AD458002300220021B86AA0478C
:1045700043461B68996800223800FFF7E1FD0124DB
:1045800006E0A300424699583800FEF7C9FC013402
:10459000A542A7D9661CAE42F3D2A30042469A5860
:1045A000FF2351680B40322BEBD1B30041465B58DF
:1045B0009946FF23494649680B40302BE1D1FB6AFD
:1045C0009B6C916809090022B86A98474B46996824
:1045D000002301223800FFF7C5FB3400D7E7002491
:1045E000D6E7C04690A3031010B50400436A1B78B9
:1045F000072B01D0022B06D12000FFF717FF200068
:10460000FDF7D4FE10BD024AFEF7FAF8FAE7C046FD
:10461000A8A3031070B504000D00C968FEF780FC64
:10462000A9680909C9B232290FD03E39C9B2012996
:1046300005D89823E26AD358A06A984770BD044B06
:10464000044A054905482FF05FFA0221F1E7C04608
:10465000C4A30310E8A80310D9080000289B031086
:10466000F8B505000E004B681F0A8968FEF758FC74
:104670000124631CBB4212DA02339B0099592800C3
:10468000FEF74EFC0234A30099590909C9B2233937
:10469000C9B29C23EA6AD358A86A9847E9E7F8BDEB
:1046A000F0B5C64600B505000E004B68DBB20D3B09
:1046B000DBB298464B681F0A8968FEF731FC01247B
:1046C000BC420DDAA31C9B0099592800FEF728FC78
:1046D0009C23EA6AD3584146A86A98470134EFE719
:1046E00004BC9046F0BD0000F8B5CE46474680B504
:1046F000050088464B681F0A8968FEF711FC032FE6
:1047000003DC00239946012418E02800FDF7F8FD9A
:104710008146F8E71B09DBB2242B41D0333BD9B2E9
:104720009C23EA6AD358A86A9847BE4205DAEB6A26
:104730005B6F4A460021A86A98473400631CBB425D
:104740004BDA02339B00424699582800FEF7E8FBFB
:10475000A61CBE4207DAEB6A9B6DA86A9847EB6A13
:104760009B6EA86A98470234A4004346E3580F2280
:104770001A400E2ACED0002B14D09A0712D1FF2255
:1047800059680A40852A13D0862A18D19B68002BC5
:104790001CD19C33EA6AD3580721A86A9847C4E71A
:1047A0000621BDE7204B214A214922482FF0ACF9D0
:1047B0009C23EA6AD3583221A86A9847B5E78A2130
:1047C0001D4B1A4A09011B482FF09EF99C23EA6AE7
:1047D000D3583321A86A9847A7E7032F03DC0CBC02
:1047E00090469946F8BD2800FDF78AFD0400EB6A63
:1047F000DB6E0100A86A9847EB6ADB6A4946A86A43
:104800009847EB6ADB680121A86A9847EB6A5B6E00
:10481000A86A9847EB6A1B6EA86A9847EB6ADB6A3E
:10482000A86A21009847DAE7F8A30310D4A8031078
:104830009A080000289B031020A4031010B5040060
:104840008968FEF76DFB9823E26AD358A06A0321BA
:10485000984710BDF8B5CE46474680B50500884656
:10486000FF274B681F401E3F7B425F41FFB2FDF7B1
:1048700047FD814643465B681E0A0024B44210DAB5
:10488000A31C9B00424699582800FEF749FB0134BF
:10489000B442F3DAEB6A5B6F4A463900A86A98477C
:1048A000ECE7EB6ADB6AA86A494698470CBC90467D
:1048B0009946F8BD70B504000F230B40022B2AD097
:1048C000002921D08B071FD1FF234A681340492BB1
:1048D00024D04F2B22D04A2B22D0502B20D05A1C30
:1048E00007D0482B1DD04E2B1ED18E68CD68002DD1
:1048F00020D1A379002B13D1E38A002B10D0284AB2
:104900002000FDF77DFF0BE0A321264B264A8900FE
:1049100026482FF0F9F801235B42DAE70123A3715F
:1049200070BD8E680D69E2E7214B1F4A21491F487F
:104930002FF0EAF8A379002B2AD0A38A01339BB287
:10494000A382012B0ED029002000FEF7E9FAE36ACA
:10495000DB6B3109A06A9847A423E26AD358A06AA6
:104960009847DDE7E18A00290DD09F33E26AD358EA
:104970000022A06A9847A023E26AD35802220021AD
:10498000A06A9847DFE7E36A5B6CA06A9847F2E7A2
:10499000E38A0133E38229002000FEF7C1FABFE772
:1049A00058A40310709E031064AA0310289B0310E0
:1049B00038A40310B1020000F0B5C64600B50400EB
:1049C0000E00CD68002D33D0AB0731D1FF236A68CC
:1049D0001340812B2CD1FDF793FC80462000FDF77E
:1049E0008FFC070043460022A9682000FEF7DCFC8C
:1049F000B1682000FEF794FAE36ADB6E3900A06A22
:104A00009847E36ADB6A4146A06A9847E36ADB6835
:104A100001214942A06A9847E9682000FEF780FA20
:104A2000E36ADB6AA06A3900984704BC9046F0BD8F
:104A3000024B034A034904482FF066F888A4031088
:104A4000A4AB03103E080000289B0310F8B5CE4627
:104A5000474680B504000D0016009846002906D18F
:104A60001900FEF75DFA0CBC90469946F8BDFDF7BB
:104A700047FC81463768002F06D0BB0704D1FF23CF
:104A80007A6813407B2B20D039002000FEF748FACB
:104A9000002249462000FDF741FCE36A1B6EA06A34
:104AA0009847321D691E43462000FFF7CFFF802341
:104AB000E26AD3584946A06A984703212000FDF7CF
:104AC00024FC2000FDF77EFECDE7B9682000FEF74C
:104AD00027FA002249462000FDF720FCF968002251
:104AE0002000FEF72DFBDCE730B583B005000C009D
:104AF0000800083001AA7A2134F09EF8011E06D081
:104B0000E368019A2800FFF7A1FF03B030BD034B13
:104B1000034A044904482EF0F7FFC046C8A4031016
:104B200050AB0310EB060000289B0310F0B5DE46E7
:104B300057464E464546E0B585B004000E00934604
:104B40000293FDF7DDFB05002000FDF7D9FB070010
:104B50000390012229002000FDF7E0FB3100200036
:104B6000FEF7DEF99423E26AD35800223900A06AE6
:104B70009847E36ADB6A2900A06A9847D023E26A73
:104B8000D358A06A98472000FDF7BAFB804600275B
:104B900063E0CA215E4B5F4AC9005F482EF0B4FF54
:104BA00003231A002A402B4206D12900FC336868EF
:104BB0000340762B7AD09246E36A9B6DA06A9847B1
:104BC00029002000FEF7ACF99C23E26AD3580821A3
:104BD000A06A9847E36A1B6F019A0021A06A984770
:104BE0005346002B67D15546E36A1B6EA06A98476F
:104BF000002D66D1A946F1682000FEF791F9002D3D
:104C000019D0E36A5B6B0E21A06A9847E36ADB6AFE
:104C10004946A06A9847E36A5B6B0E21A06A9847F1
:104C200029002000FEF750F929002000FEF767F95F
:104C30002000FDF7C7FD9423E26AD35801224146C4
:104C4000A06A9847E36ADB6A0199A06A9847E36A19
:104C5000DB680121A06A984701375F453BDABB005A
:104C6000029A914699444B461E68002E91D0032328
:104C70001A003240924633428BD1FC3372681340A3
:104C8000752B86D12000FDF73BFB0190B568002D08
:104C900086D17B1C5B45A7D04B4619681F4A200074
:104CA000FDF7AEFD2000FDF78DFD2AE0AD68CB6875
:104CB0001B099A4680E751462000FEF705F9554644
:104CC00096E72000FDF71CFB814602220100200030
:104CD000FDF724FB8FE72000FDF774FDD423E26A83
:104CE000D358A06A9847E36ADB6A0399A06A984799
:104CF0000E992000FEF714F9E36ADB6AA06A4146C8
:104D0000984705B03CBC90469946A246AB46F0BDDC
:104D1000D0A4031014AB0310289B031010A503109C
:104D2000F0B585B004000F0016000393FDF7E8FA14
:104D30000500022201002000FDF7F0FA002E2AD122
:104D40000A9B002B21D1E36ADB680321A06A984704
:104D500039002000FEF7E4F8E36ADB6803214942EA
:104D6000A06A9847E36A5B6B0E21A06A9847E36AE2
:104D7000DB6A2900A06A98470B992000FEF7D0F85B
:104D80002000FDF71FFD05B0F0BD074B074A08499D
:104D900008482EF0B9FE0A9B0093039B32003900AD
:104DA0002000FFF7C3FEDDE730A5031028AB03109A
:104DB000A3060000289B031070B584B006000C0009
:104DC000CD68002D18D0AB0716D1FF236A681340B9
:104DD000782B17D0742B1ED008000C3003AA772133
:104DE00033F02AFF0200A16800230093039B3000E8
:104DF000FFF79CFE04B070BD154B164A16491748C4
:104E00002EF082FE8968AB68019300230093002294
:104E1000FFF786FFEEE72800083003AA772133F07A
:104E20000BFF02002B69002B07D1A168EB680093F0
:104E3000039B3000FFF77AFEDCE7A1689B680193D3
:104E4000EB680093039B3000FFF76AFFD2E7C04690
:104E50006CA203103CAB0310B2060000289B0310A9
:104E6000F0B5DE4657464E464546E0B587B00400ED
:104E7000039104921E00038B9946438B9846C38B83
:104E80009B46FDF73DFA050005902000FDF738FA36
:104E9000070025836083A38BE3832000FDF730FAAE
:104EA00002902000FDF72CFA01900125354069425F
:104EB0006941CBB29A46002D00D18EE004992000C2
:104EC000FEF72EF8E36ADB6E0199A06A9847E36A61
:104ED000DB6A0299A06A9847E36A9B6DA06A9847CB
:104EE000002203992000FEF72BF911992000FEF70C
:104EF00017F8E36ADB6A3900A06A98471099200026
:104F0000FEF70EF89C23E26AD3580E21A06A984758
:104F1000E36ADB6A0199A06A9847002D62D1E36ACF
:104F2000DB6DA06A9847E36A5B6EA06A9847109BA6
:104F3000DB0760D5109B002B63DB9C23E26AD35810
:104F40000021A06A9847E36A1B6F029A0121A06AB8
:104F500098474B462383434663835B46E383129B18
:104F6000002B55D0E36A1B6EA06A9847002D03D131
:104F7000E36A1B6EA06A984712992000FDF7D0FFE4
:104F80002000FDF7BDF90600E36ADB6E0100A06AB0
:104F90009847E36ADB6851460131A06A9847E36AA3
:104FA000DB6A0599A06A9847E36A1B6EA06A984776
:104FB000002D03D1E36A1B6EA06A9847129B002B59
:104FC00004D0E36ADB6AA06A3100984707B03CBCB2
:104FD00090469946A246AB46F0BD31002000FDF751
:104FE0009FFF6BE7E36A9B6DA06A98473100200042
:104FF000FDF796FF9BE7074B074A084908482EF044
:1050000083FD9C23E26AD3580121A06A98479AE75E
:10501000129EC4E750A50310F0AA0310C3050000B8
:10502000289B0310F0B5DE4657464E464546E0B590
:1050300087B004000D000F238A681340022B09D1AA
:10504000CB68002B06D09A0704D1FF2259680A408A
:105050002C2A61D0238B9B46638B9A46E38B99461F
:105060002000FDF74DF907002000FDF749F9060083
:10507000BAB26083A38BE3835A4B1343238320008C
:10508000FDF73EF98046E9682000FDF749FF8823D7
:10509000E26AD3580121A06A9847E36ADB6A3100CB
:1050A000A06A98478C23E26AD3584146A06A984781
:1050B0000022A9682000FEF743F829692000FDF7C7
:1050C0002FFFE36A9B68A06A9847002804D1E36A2F
:1050D000DB6E3100A06A9847E36ADB6A4146A06A4A
:1050E00098479023E26AD358A06A98475B46238387
:1050F000534663834B46E38369692000FDF710FF45
:10510000E36ADB6AA06A3900984707B03CBC904666
:105110009946A246AB46F0BD99681D3A0A40022A5C
:1051200098D109097C2995D1DA68FF2351680B4091
:10513000302B00D08EE79368049305AAA42104A81D
:1051400033F07AFD431E022B38D801280DD00228F7
:1051500029D0059B1E685F689B689846DB0729D5A8
:1051600043465B1028D0012305E0059B1F6806001D
:10517000012303229046002B08D0002E06D0B20750
:1051800004D17268D2B2A63A022A28D9002B16D0CE
:10519000002F14D0BA0712D17A68D2B2A63A022AE6
:1051A0000DD800230BE0059B1E685F6801230322D6
:1051B0009046E0E70023DEE70023DCE70023002B36
:1051C00000D147E76B6902932B6901934346009333
:1051D0003B003200A9682000FFF742FE95E700235C
:1051E000EDE7C0460080FFFFF8B5DE4657464E4665
:1051F0004546E0B504000D00038B9A46438B994663
:10520000C38B9846FDF77CF806002000FDF778F880
:10521000070026836083A38BE383A86833F0ACFC8C
:10522000002814D0534623834B4663834346E383CD
:1052300029692000FDF774FEE36ADB6AA06A310089
:1052400098473CBC90469946A246AB46F8BD200024
:10525000FDF756F88346A86833F046FC002804D1D1
:10526000E36ADB6E3900A06A9847E36ADB6A594655
:10527000A06A9847E9682000FDF752FEE36ADB6AFE
:105280003900A06A98475B460122A9682000FEF712
:105290008BF8C7E7F0B5D6464F464646C0B582B054
:1052A00006008946FDF72CF880464B46986833F097
:1052B00063FC00282DD13000FDF722F80400030024
:1052C0000022494689683000FEF76EF84B46D968DF
:1052D0003000FDF725FE4B46986833F005FC0028AA
:1052E00063D14B461B69002B03D14B465B69002BF6
:1052F0000AD0F36A9B68B06A9847002804D1F36A21
:10530000DB6E4146B06A9847F36ADB6A2100B06AF7
:1053100098474846103001AA712133F08DFC0700F0
:1053200000250BE0264B274A274928482EF0ECFBA6
:10533000F36ADB6A5146B06A98470135BD422FD205
:10534000AB00019A9C58002CECD0A307EAD1FF23B4
:1053500062681340722BE5D1A06833F00DFC002881
:10536000EBD13000FCF7CCFF824603000022A1689D
:105370003000FEF719F8E1683000FDF7D1FDA068B4
:1053800033F0B2FB002810D1F36A9B68B06A9847EB
:105390000028CDD1F36ADB6E4146B06A9847C7E773
:1053A0004B4659693000FDF7BBFDF36ADB6AB06A12
:1053B0004146984702B01CBC90469946A246F0BDB3
:1053C00074A50310E0AA031047050000289B0310F2
:1053D000F0B5DE4657464E464546E0B585B004007A
:1053E0000D00CB681B099B46FCF78AFF0390200049
:1053F000FCF786FF00902000FCF782FF0190200060
:10540000FCF77EFF0290E9682000FDF789FDE36A62
:105410009B6C0022AA21A06A9847C023E26AD65852
:10542000002300220021A06AB04759462000FDF762
:105430004BFD238B9A46638B9946E38B984620005D
:10544000FCF75EFF07002000FCF75AFF06002783E9
:105450006083A38BE383E36ADB6A0100A06A984759
:10546000012200992000FCF759FF59462000FDF762
:105470001BFDAC212000FCF7B1FF0022A968200031
:10548000FDF75EFE94239B46E36A5A469B58002232
:105490000199A06A9847E36ADB6A0099A06A984775
:1054A000D023E26AD358A06A9847E36A9B6DA06A4A
:1054B0009847E36A9B695C210122FF31A06A984703
:1054C0009C23E26AD3580821A06A9847E36A1B6FBD
:1054D000029A0021A06A9847E36A1B6EA06A984767
:1054E000E36A5A469B58933A039883460100A06AA0
:1054F0009847E36ADB6A0299A06A9847E36ADB6827
:105500000121A06A98472000FDF75CF9D423E26AE4
:10551000D358A06A9847E36ADB6A0199A06A984762
:1055200029692000FDF7FCFCE36ADB6E3100A06A0C
:105530009847534623834B4663834346E383E36A9A
:10554000DB6A5946A06A984769692000FDF7E8FCC4
:10555000E36ADB6AA06A3900984705B03CBC904614
:105560009946A246AB46F0BDF0B5DE4657464E46DC
:105570004546E0B583B004000D0016009B460029A7
:1055800009D11900FDF7CCFC03B03CBC904699460C
:10559000A246AB46F0BDFCF7B3FE82462000FCF706
:1055A000AFFE81462000FCF7ABFE01902000FCF727
:1055B000A7FE80463768002F07D0BB0705D1FF2321
:1055C0007A6813407B2B00D1E2E039002000FDF720
:1055D000A7FCE36A9B6DA06A9847A8212000FCF70E
:1055E000FDFEE36A1B6EA06A984702225146200026
:1055F000FCF794FEE36ADB680321A06A9847321D3A
:10560000691E5B462000FFF7AFFFE36ADB680321FA
:105610004942A06A9847E36A5B6B0E21A06A9847EB
:10562000E36A5B6EA06A9847E36ADB6E4946A06A4C
:105630009847E36ADB6A5146A06A9847E36A9B6D24
:10564000A06A9847E36A9B6901222121A06A9847D2
:105650009C23E26AD3580821A06A9847E36A1B6F2B
:10566000019F3A000021A06A9847E36A9B6DA06AF7
:105670009847E36A9B6EA06A9847E36A5B6EA06AEC
:105680009847E36A9B6C0022A921A06A9847E36AC5
:105690009B6EA06A9847E36A9B6EA06A9847E36A8C
:1056A0009B6DA06A9847E36A5B6D00220A21A06A9D
:1056B0009847E36A5B6EA06A9847E36A5B6B0E21CA
:1056C000A06A9847C025E36A5E590023002203219F
:1056D000A06AB0472000FCF769FEE36A1B6F4246F0
:1056E0000021A06A9847E36A1B6EA06A9847E36AA4
:1056F0005B6B0E21A06A9847E36ADB6E4146A06AA5
:105700009847E36ADB680221A06A9847E36ADB6A8C
:105710003900A06A9847E36A9B6EA06A9847E36ADB
:105720009B6EA06A9847E36ADB6A4946A06A98477D
:10573000E36A9B6C0022A921A06A9847E36A5B6B2D
:105740000E21A06A9847E36A9B6DA06A9847E36AB6
:105750009B6DA06A9847E36A5D59002300220321EC
:10576000A06AA8472000FCF721FEE36A1B6EA06A2E
:105770009847E36ADB6801214942A06A9847E36AD7
:10578000DB6A4146A06A98472000FDF71BF8FBE65C
:10579000B9682000FDF7C4FBE36A9B6DA06A9847D7
:1057A000A8212000FCF71AFEF96800222000FDF76E
:1057B000C7FC1AE730B583B005000C0008000830BC
:1057C00001AA7A2133F038FA011E06D0E368019A63
:1057D0002800FFF7C9FE03B030BD034B034A04495C
:1057E00004482EF091F9C046C8A4031064AB03101E
:1057F000A7070000289B031010B58C68002C12D05E
:10580000A30710D1FF2362681340032B11D0426A13
:10581000128BD20716D5162B19D0182B1BD12100AD
:10582000FFF7C8FF10BD0F4B0F4A104910482EF06C
:105830006BF92100FDF758FBA269138B01210B4383
:105840001383EFE70B4A2100FCF7DAFFEAE72100B8
:10585000FFF7BEFDE6E7084B034A084904482EF06F
:1058600053F9C046B0A503107CAB0310AE0700008F
:10587000289B0310D8A5031000A60310C30700003F
:1058800070B504000D00184ADC235B00D358002BD0
:1058900000D070BDFCF734FD060003000122A968AA
:1058A0002000FDF781FDE36A9B6901221F21A06AA8
:1058B0009847E96800290BD1C823E26AD35801212F
:1058C000A06A9847E36ADB6AA06A31009847E0E77C
:1058D0002000FDF725FBBC23E26AD55800230022F7
:1058E0000121A06AA847E7E7706F032070B50400A4
:1058F0008D68002D06D1C823C26AD358806A002162
:10590000984770BDAB0704D1FF236A6813405E2B34
:105910000AD029002000FDF703FBC823E26AD35810
:10592000A06A01219847ECE7A968FDF7F9FAE96850
:105930002000FDF7F5FAC823E26AD358A06A0221D5
:105940009847DEE710B504008968FDF7E9FAE36AD5
:105950001B6EA06A984710BD10B50400436A1B78FF
:10596000072B0DD1896800290ED1C36A5B6B0E31FC
:10597000806A9847C423E26AD358A06A984710BD4A
:10598000034AFCF73DFFFAE7FDF7CAFAF2E7C04623
:1059900030A60310F8B5CE46474680B505000C008A
:1059A0000F230B40022B39D0002906D08B0704D1DE
:1059B000FF234A6813402C2B34D0002C00D1ABE0DD
:1059C000A30700D0A8E0FF23626813402D2B00D06E
:1059D000A2E0A468002C00D19EE0A30775D12700A7
:1059E000FF2362681340922B6FD1E368002B0CD029
:1059F0009A070AD11E005968FF220A40952A6BD0E7
:105A0000962A78D0AC2A00D186E0B9682800FFF742
:105A1000C1FFF9682800FFF7BDFF82E00909FDF723
:105A20006EFA7EE08968FDF77BFAE768002F73D095
:105A3000BB0771D1B8467A68FF2313408E2B14D070
:105A4000FF23424652681340312B2DD0322B63D1B5
:105A5000434699680F230B40022B30D1EB6A5B6DF4
:105A60000909A86A022298475BE0130A99460026B2
:105A700007E0B31C9B00424699582800FDF750FAF6
:105A800001364B46013BB342F3DC02339B00DB594A
:105A9000002B03D09A0701D19846D1E7234B244A23
:105AA000244925482EF030F8434699682800FDF730
:105AB00037FAEB6A1B6DA86A0221984731E01F4B49
:105AC0001B4A1F491C482EF01FF8F6211D4B184A8F
:105AD000890019482EF018F89B68002B04D1A168A2
