:020000041000EA
:1000000000B5324B212058609868022188439860DF
:10001000D860186158612E4B002199600221596106
:100020000121F02299502B49196001219960352056
:1000300000F044F80222904214D00621196600F024
:1000400034F8196E01211966002018661A6600F04E
:100050002CF8196E196E196E052000F02FF8012189
:100060000842F9D1002199601B49196000215960AB
:100070001A491B48016001219960EB211966A021F2
:10008000196600F012F800219960164914480160C1
:100090000121996001BC002800D000471248134993
:1000A000086003C880F30888084703B5996A0420EC
:1000B0000142FBD001200142F8D103BD02B5186610
:1000C0001866FFF7F2FF186E186E02BD00000240BE
:1000D000000000180000070000035F00212200005C
:1000E000F4000018222000A00001001008ED00E03C
:1000F00000000000000000000000000074B24E7A12
:1001000000200420F7010010C3010010C5010010F9
:10011000C1010010C1010010C1010010C101001097
:10012000C1010010C1010010C1010010C701001081
:10013000C1010010C1010010C9010010CB01001065
:10014000CD010010CD010010CD010010CD01001037
:10015000CD010010CD010010CD010010CD01001027
:10016000CD010010CD010010CD010010CD01001017
:10017000CD010010CD010010CD010010CD01001007
:10018000CD010010CD010010CD010010CD010010F7
:10019000CD010010CD010010CD010010CD010010E7
:1001A000CD010010CD010010CD010010CD010010D7
:1001B000CD010010CD010010CD010010CD010010C7
:1001C00000BE00BE00BE00BE00BE00BE00F04BF888
:1001D000103800BEF2EB8871ACF704100CF8041074
:1001E0003402001090A31AE700202149086006C8D5
:1001F00081F3088810471F48006800282FD10DA4FC
:100200000ECC002902D000F012F8F9E71A491B4A77
:10021000002000E001C19142FCD1194988471949E9
:1002200088471949884700BEFDE701C901C29A42C3
:10023000FBD370470CF80410C0000020185F0020AA
:1002400064560510000004200000042064560510C8
:1002500000100420001004200000000070470B482C
:100260002FF0C5FF0047EFF30580C0B270470000D4
:1002700008ED00E0000000D0185F0020BC740320EF
:1002800009390310C9E40210D93903105756000088
:1002900006005250ABB3605338F1041006005250C0
:1002A000861C0302A89C0410060052505422A29DF2
:1002B00048F1041005005250DE65F46864560510DC
:1002C000F8B5C0460448054B10B5834203D0044B33
:1002D000002B00D0984710BD185F0020185F002049
:1002E0000000000006480749091A8B10C90FC918F9
:1002F00010B5491003D0044B002B00D0984710BD17
:10030000185F0020185F00200000000010B5074CA7
:100310002378002B09D1FFF7D5FF054B002B02D026
:10032000044800E000BF0123237010BD18600020C6
:1003300000000000B08B0310054B10B5002B03D05C
:100340000449054800E000BFFFF7CCFF10BDC046E0
:10035000000000001C600020B08B031010B50123CA
:100360001340540C52081204120C002901D0002B27
:1003700006D0944207D084420DD8824210D310BDDB
:100380000A481CF00DFC8442F9D003002200084901
:1003900008481BF04EFB221A074906481BF049FB90
:1003A0000300064903481BF044FBC046B08B031012
:1003B000D88B031028ED0310148C0310488C031005
:1003C000F0B5DE4657464E464546E0B583B080461A
:1003D0008A4601921F000C9D0D9B99460024002324
:1003E0000093002629E0E300EA189346E95AC90081
:1003F00002231943002201980BF0D6FF002804D0F5
:10040000009B01330093406824E05B465B88DB057A
:1004100005D4A3005A4652684946CA500CE05B46D0
:100420001A88254925481BF004FBA3004B449B4632
:1004300010F05CF95B4618700134BC4227D2444589
:10044000D1D2E300EB185B889B052FD40136A300C3
:100450005246D058E300EB185A88FF231340012B73
:10046000E3D0022B05D0032B0BD1A3004A46D0507A
:10047000E2E7A3004B449B460FF084FF5B46186005
:10048000DAE70F4B0F4A6F210F4833F0A9FA4645C0
:100490000CD3019B1B68DB08009A934209D803B078
:1004A0003CBC90469946A246AB46F0BD07481CF0BE
:1004B00077FB07481CF074FB788C031028ED0310C1
:1004C000908C0310748D0310C48C0310EC8C0310FB
:1004D000108D031070B586B0040015001E00820058
:1004E000AA1803A80BF024FF0B9B01930A9B00930F
:1004F000330003AA29002000FFF762FF06B070BD99
:1005000010B501481CF06EFB308D031010B50400CF
:10051000016188000BF0A5FE606110BD10B50400FC
:10052000002903D160690BF0D0FE10BDC0680BF04C
:10053000CCFEF7E770B504000D0001290BDD406823
:100540000BF08FFEE0606368A36000280BD025608D
:100550000023636070BD03699A000121494240692C
:1005600035F0AAFCF3E7034B034A3721034833F085
:1005700037FAC046888D0310708E0310A08D0310CB
:1005800010B503000268022A12D1406842189C6824
:10059000A24207D8DA68944660445A689446614497
:1005A000596010BD034B044A4321044833F018FA44
:1005B0000020F2E7C88D0310888E0310A08D031071
:1005C00010B503698B4209D90368012B0CDD890042
:1005D0004369CA5843689A4216D110BD0D4B0E4A62
:1005E0004B210E4833F0FCF9890043699C46614475
:1005F0000B68013302D143680B60EEE7084B064AF3
:100600004E21064833F0ECF9064B034A52210348C9
:1006100033F0E6F9008E0310AC8E0310A08D0310AA
:100620001C8E0310448E031043685B18013B494243
:1006300019404160704770B50D001400FFF7A0FF2E
:10064000002807D0002303E00470240A013301309E
:10065000AB42F9D370BD000010B503698B4203D9DA
:1006600043698900C85810BD024B034ADA21034888
:1006700033F0B6F9C88E031000910310E88E031012
:1006800010B50368012B04DD002903DBFF23994328
:1006900007D110BD9E21044B044AFF31044833F0BA
:1006A0009FF904481CF09EFA4C9003105C910310D3
:1006B000E88E0310108F0310704710B50C00022154
:1006C000FFF75EFF002802D00470240A447010BDBA
:1006D000F8B50600002910DB02291FD013DC012920
:1006E00016D80025F227B521090239433000FFF75B
:1006F000E4FF002D21D02C0018E0114B114A7B2182
:10070000114833F06DF9032902D10025FE27EAE7ED
:100710000239012399430D00FE27E4E70025FE2757
:10072000E1E70A493000FFF7C8FF7F3C7F2CF8D88B
:10073000074921433000FFF7C0FFB761F561F8BDFD
:10074000348F0310F0900310E88E0310FFB0000008
:1007500080B0000070B50500C469002C0DD07F2C5E
:1007600005D90A492800FFF7A8FF7F3CF7E7B02129
:10077000090221432800FFF7A0FFBD210902AB6950
:1007800019432800FFF799FF70BDC0467FB00000F5
:1007900070B50D0014000421FFF7F2FE002805D00B
:1007A00005702D0A45708470240AC47070BD000065
:1007B00010B5072A07D8072B0BD8DB0019431143C4
:1007C000FFF77BFF10BD064B064AF521064833F0C4
:1007D00007F9064B034AF621034833F001F9C046F6
:1007E000448F031010910310E88E0310608F0310E4
:1007F00010B5072A09D8D20007290BD811438C223B
:10080000D2011143FFF759FF10BD083AD20040232F
:100810001A43F1E70839114380221143EFE7000042
:1008200070B505000C0016001112FF230B40072CB9
:100830001ED822028021890111431943FFF73DFF91
:10084000072C1BD820D8E3008021890019432143BD
:100850002800FFF732FFFF213140072C1AD824026D
:10086000C0229201144321432800FFF726FF70BDE8
:100870000B4B0C4AA5210C4833F0B2F80B4B0C4A39
:100880007721094833F0ACF80A4B094A7821064829
:1008900033F0A6F8024B034AA521034833F0A0F831
:1008A0007C8F0310C8900310948F0310448F0310A3
:1008B000A0900310608F031070B50500FFF7CCFE09
:1008C0006B68C41A043C61104905490DE0231B0202
:1008D00019432800FFF7F1FE2B68022B01D00120FD
:1008E00070BDE40AE302002C06D0044A934201D012
:1008F0000020F5E70120F3E70120F1E700F8FFFF12
:10090000F8B507000D0011001C00FFF7A5FE7B687D
:10091000C01A061F002C01D00020F8BD2D02D021E6
:1009200009020D437310FF21194029433800FFF7D6
:10093000C4FE3B68022B01D00120EEE7FD339E434D
:1009400006D0044A964201D00020E6E70120E4E701
:100950000120E2E700FFFFFF70B50500FFF77CFE16
:100960006B68C41A043C21134905490DF0231B028E
:10097000194362101204120CF8231B021A432800B8
:10098000FFF706FF2B68022B01D0012070BDA40DDC
:10099000A305002C06D0044A934201D00020F5E7BD
:1009A0000120F3E70120F1E70000C0FFF8B50400E3
:1009B0000D001600476807291ED8C368002B01D018
:1009C0009B0720D1BB0725D4072D29D82D029021C4
:1009D000C90129432000FFF770FE14492000FFF7EA
:1009E0006CFE3104090C2000FFF767FE310C20007B
:1009F000FFF763FE3800F8BD58210D4B0D4AFF315B
:100A00000D4832F0EDFFAD210C4B0A4A49000A486F
:100A100032F0E6FFBF2109022000FFF74EFED3E7C8
:100A2000074B084AA521084832F0DAFF01E0000030
:100A3000BC8F031024910310E88E0310D88F03108D
:100A40007C8F0310C8900310948F0310F0B5DE461E
:100A500057464E46C0B582B081460C0015000729A6
:100A600002D8FF239A4312D0072C20D8EB0F9A46C6
:100A7000002D23DB2F000197380032F0EFFF834673
:100A8000002F1DD0380032F0EFFF060019E00729D3
:100A900007D80C028021890121432943FFF70DFE6D
:100AA00022E0354B354AA521354832F099FFBD216A
:100AB000344B354A4900354832F092FF6F42DAE74D
:100AC00000265B46F318202B14D8172B19D8019B4E
:100AD0001E0C40D0002D44DB3A0021004846FFF7B1
:100AE00065FF5346002B40D102B01CBC91469A468C
:100AF000A346F0BD8421264B234AFF31234832F020
:100B00006FFF3741FF213940072C12D8230280277D
:100B1000BF011F4339434846FFF7CFFD072C0ED8CE
:100B200013D8B101E000014321434846FFF7C5FD5A
:100B3000D7E7114B114AA521114832F051FF114B53
:100B4000144A77210E4832F04BFF134B114A78219B
:100B50000B4832F045FF3A0021004846FFF760FE9F
:100B6000BFE77F4200239A46B6E7230022000B49E5
:100B70004846FFF71DFEB7E77C8F0310C8900310AF
:100B8000948F0310448F03103C910310E88E0310E0
:100B900018900310A0900310608F031040420000D3
:100BA00070B505000E001400072A0CD8FFF768FD89
:100BB0002402FF210E4034439021090221432800E2
:100BC000FFF77BFD70BDA621024B034AFF310348AE
:100BD00032F006FF608F031078910310E88E031047
:100BE00070B505000C00160007290DD81100FFF79D
:100BF00047FD2402FF210E4034439821090221437E
:100C00002800FFF75AFD70BDD621034B034A490067
:100C1000034832F0E5FEC046448F03109091031064
:100C2000E88E031010B507290ED80368012B01DDEB
:100C3000002A10DB0902FF231A401143A8221202E6
:100C40001143FFF73AFD10BDB621064B064AFF31AE
:100C5000064832F0C5FEB821054B034AFF31034870
:100C600032F0BEFE448F0310A8910310E88E0310EB
:100C70002890031070B505000C001100FFF7ECFC84
:100C80006B68C21A012002430C3A21002800FFF7CA
:100C9000C7FD072C14D81AD8E300B2210902194362
:100CA00021432800FFF709FD230180210B400B4958
:100CB000194307231C4021432800FFF7FEFC70BDA9
:100CC0009321074B074A4900074832F089FE282143
:100CD000064B044AFF31044832F082FE784400009B
:100CE000448F0310DC900310948F0310608F031067
:100CF000F0B5C64600B506000C001700072903D85A
:100D0000072A01D81F2B1FD91F3B1D00072C00D914
:100D1000CEE0072F00D9CBE0FF232A009A436CD105
:100D20003F2D01D9BC4268D03F2D26D8BC4218D1F6
:100D3000AD00072C1BD82202C02189011143294391
:100D40003000FFF7BAFC6CE09D01F821C9000D40AE
:100D5000D021C9012943D70039432143FFF7ADFC16
:100D600066E03A0021003000FFF742FDE0E7544B17
:100D7000544AA521544832F033FE072C1FD82202D2
:100D800080218901114329433000FFF796FC072C8D
:100D90001BD820D8E1008023194321433000FFF7FE
:100DA0008CFC072C1DD822D8BF01C0214901394332
:100DB000E700394321433000FFF77FFC31E0404B2F
:100DC000404AA521404832F00BFE404B404A772173
:100DD0003D4832F005FE3F4B3D4A78213A4832F01B
:100DE000FFFD3A4B3C4A8721374832F0F9FD394B39
:100DF000394A8821344832F0F3FDBC4227D0AA009A
:100E000021003000FFF70CFD072C14D819D8A301DE
:100E1000C02149011943E300194321433000FFF782
:100E20004CFCE3002D49194321433000FFF745FCFA
:100E300004BC9046F0BD254B274A8721224832F05A
:100E4000CFFD244B244A88211F4832F0C9FD0721D9
:100E50006140884601278F40B421090239433000A0
:100E6000FFF72BFCAA0041463000FFF7D9FC072C06
:100E700012D817D843469B01C02149011943E3000A
:100E8000194321433000FFF718FCBC210902394304
:100E90003000FFF712FCC4E70C4B0F4A87210A48C9
:100EA00032F09EFD0B4B0C4A8821074832F098FD2A
:100EB000F4210B4B0B4AFF310B4832F091FDC04639
:100EC0007C8F0310C8900310948F0310448F03107D
:100ED000A0900310608F0310B4900310C06F000047
:100EE00008EC0410C8910310E88E031070B50400DC
:100EF000FFF7B2FB05006368C11A0439431C12D026
:100F0000CB1C10DACB0ADA02002B02D0134B9A4228
:100F100009D149104905490DE0231B02194320005E
:100F2000FFF7CBFB0FE0CB0ADA02002B02D00B4B12
:100F30009A4209D149104905490DE0231B02194382
:100F40002000FFF7BAFB70BDBF2109022000FFF7A8
:100F5000B4FB6B1CF7D002481BF044FE00F8FFFF07
:100F60006090031070B504000E0015001100FFF72B
:100F700073FB6368C31A043B421C15D0DA1C13DAF6
:100F8000FF22190091430A1E02D00F498A420BD159
:100F90003102D022120211435B10FF263340194365
:100FA0002000FFF78AFB0DE0360280235B007340D0
:100FB000D021090219432000FFF77FFB2900200000
:100FC000FFF794FF70BDC04600FFFFFF10B5043A65
:100FD000FF2314009C43231E02D00A4CA3420AD1D3
:100FE0000902D0231B0219435210FF231A40114358
:100FF000FFF763FB10BD044B044A0549054832F076
:10100000EFFCC04600FFFFFF78900310EC91031047
:1010100039020000E88E031010B50439CB0ADA0259
:10102000002B02D0084B9A4208D149104905490DBE
:10103000E0231B021943FFF740FB10BD034B044A9A
:101040000449054832F0CCFC00F8FFFF8C900310F7
:10105000009203103F020000E88E031070B50500F7
:101060000B00140007222100FFF742FEE4008F214D
:10107000C90121432800FFF720FB70BD10B5130004
:101080000A00024902481AF0D4FCC046D88B03106B
:1010900028ED0310F0B5DE4657464E464546E0B50E
:1010A00089B007000E0005929846036803939B6879
:1010B0000193426894466344828991465A1C426077
:1010C0001B7803251D4000210022002400208346B8
:1010D0000194B44616001BE07B685A1C7A601B78AA
:1010E0009A11924601225046104088405C460443C3
:1010F000A3460420184088400543D81002408A4087
:1011000001981043019001221A408A401643013190
:101110005BB2002BE0DB019C049666463B0010337B
:10112000BB600023FB81380014304B469A0000213D
:1011300034F0C2FEB30043449A464B465B1B069311
:101140001B1B5A1E019203339B00FB1804330793A9
:10115000B5421BD25B465B0713D5AB00079A043A36
:10116000079243441900701B17F062FC019B043383
:101170009B00FB1858602E000022A44648464446B7
:101180003FE0320029000398FFF778FF5B465B07DA
:1011900008D5079B043B0793019B04339B00FB1876
:1011A000974A5A60059B002BE6D15B461B07E3D4A8
:1011B000049BE91AB14218D83200A4460498039C53
:1011C0004E4691460AE0411B8918B31A0431890042
:1011D000095903339B00FB18596001329542F2D83C
:1011E00064464B46B1461E00C6E732000398FFF73F
:1011F00045FF831A9100095903339B00FB1859607E
:1012000001329642F5D864468146059B002B03D1F6
:101210005B461B0700D4CAE002235A461A400192DB
:101220005A4613420CD100230293039BDE6800232D
:1012300098465B460793BB464746059B984625E084
:10124000059811F041F80290079B1860EDE74846B9
:10125000C31A581E03339B005B445B68002B06D106
:101260005244536804308000584443600DE0CA087B
:10127000644965481AF0DDFB019B002B15D0043250
:1012800053469A58029811F0B2F80137474511D2E7
:10129000FA0053469958002328199842ECD998002F
:1012A00080598842D3D00133F6E7CA0857495648D7
:1012B0001AF0BFFB5F46079B9B46069B04339B00CF
:1012C000FB1804330499CA1C9200039884466244B4
:1012D00002E001390433043A002905D018680028D7
:1012E000F7D110681860F4E7884649460A1D920055
:1012F000BA1804329A4208D901CB0028F6D1D21A82
:101300009210434940481AF094FB0191A946B24615
:1013100026004446069B98460BE04D46A04656469E
:101320004544AD00AA59D2083A4937481AF081FB22
:101330000134A64221D943461B1B5D1E03339B008B
:10134000FB185B68002BF3D15B461B07E5D5049BBC
:1013500004339B00039A98584B461B199B00524636
:10136000D158043000220BF01FF80028D5D0436874
:101370000435AD007D196B60DAE7019B99467B6807
:10138000002400250026581C1B7801221A40A24088
:10139000154359103F220A406100091949008A404B
:1013A00016435BB2002B10DA01340300EBE7002C8C
:1013B00008D15B469B07E2D5002010F085FF079B14
:1013C0001860DCE714481BF0EBFB8019B8464F4669
:1013D0000BE0461C04783C1B0334A40044446068C2
:1013E00010F098F86060013D3000002DF1D14746C3
:1013F000786009B03CBC90469946A246AB46F0BD29
:10140000C41004101492031028ED0310449203102A
:10141000689203109C920310CC92031030B5050023
:10142000047823095B00E920800018410323184059
:1014300001280DD061239C4363425C41E4B26B1CE4
:10144000022807D003280DD01B195B1B0B6030BD91
:10145000EB1CFAE7002AF7D01A7852B20133002ABF
:10146000FADBF1E7EB1CEFE710B5402812D026D8E5
:101470003C2801D03E2822D14239CBB22F2B1ED896
:101480009900154B5B589F46012308200DE001236E
:1014900008200AE0712912D88900104B5B589F463A
:1014A0000823082001E002230220002A00D0136054
:1014B00010BD01230120F8E701230120F5E70848CA
:1014C0001BF088F901230220EFE701230420ECE759
:1014D00004230420E9E7C04604930310C4930310D7
:1014E000F492031010B5712845D88000244B1B5886
:1014F0009F46885640E0885C3EE05200505E3BE0EC
:101500005200505A38E09200885812F058FD36E0E8
:101510009200885812F0CEFD31E09200885812F007
:101520004EFD2CE09200885812F0C4FD27E0D20056
:1015300089180868496812F031FD20E0D200891846
:101540000868496812F047FD19E09200885811F0C8
:101550005DFB14E0D20089180868496832F0DCFDB0
:1015600011F054FB0BE09200505808E092005058E4
:1015700012F025FD03E0002040000123184310BDB8
:101580008C950310F0B50600002A0CD1421E9B1862
:1015900001277F42002908D000229A56002A12DB38
:1015A0000020002103E00127F4E7002000210022B1
:1015B000B2420CD2040E090200021D7828432143D6
:1015C000DB190132F4E7012040420100EFE7F0BDF2
:1015D000F0B585B004000D0001921F001E6803AA3B
:1015E000FFF742FF402C2AD033183B603E3C62425A
:1015F0006241D2B25A21A942894149423300FFF7E0
:10160000C1FF06000F004F2D17D0532D22D0662D9D
:1016100027D0642D28D05A2D30D98022D20500231E
:1016200092197B411100002B23D103D180231B068B
:1016300099421ED2300012F0C2FC05B0F0BD0199F3
:10164000761A039BF618721E5E4216408C4666445C
:10165000043CC9E737F0E6F80100300015F0D4F992
:10166000EBE711F0D3FAE8E732F056FD11F0CEFACD
:10167000E3E73000390012F091FCDEE7002908D1E1
:1016800003D18023DB05984203D2300012F012FD13
:10169000D3E73000390012F09EFCCEE710B582B0DF
:1016A000040010000193002902D001AB1B1909E0CE
:1016B000220001A934F006FC07E0013B1978017013
:1016C00001301400621E002CF7D102B010BD0000E2
:1016D000F0B5D64600B586B004000D0017000193A2
:1016E0000C9B9A461E6805AAFFF7BEFE0090402C90
:1016F00023D0009BF31852461360642D3CD0662D16
:1017000026D04F2D28D0BB0703D1314B3A689A42DF
:1017100052D038000EF036FE0700009B042B1BD978
:10172000002853DB0021009A300034F0C5FB3E2C2A
:1017300012D1009B043BF6180EE00199761A059B26
:10174000F618721E5E4216408C466644043CD0E792
:1017500038000EF09FFE07000098042800D90420EE
:101760003E3C61426141C9B23B003200FFF796FF47
:1017700006B004BC9246F0BD38000EF08BFE33F08C
:101780005DFC0290039127003E3F79427941C9B246
:101790008B0006AA94466344103B1B683200042069
:1017A000FFF77CFF04367B1E9F41BF0006AB9C46C3
:1017B0006744103F3F68CFE73E3C61426141C9B298
:1017C0003300009A380012F077FBD1E7FF21AAE737
:1017D00010F7031010B501280FD000280CD0712885
:1017E0000AD8422808D34238C4B22F2C04D8A0000B
:1017F0001B4C205887468B5410BD8B54FCE752007D
:101800008B52F9E752008B52F6E792008B50F3E7C8
:1018100092008B50F0E792008B50EDE792008B50D6
:10182000EAE7D2008A181360DB175360E4E7D200BE
:101830008A181360DB175360DEE792008C181800DB
:1018400033F088FB2060D7E7D2008C18180032F004
:101850001BFC20606160CFE792008B50CCE7C04654
:1018600054970310F8B505000F0014001E006428FB
:101870001AD0662811D04F2820D0B30703D1174BB8
:1018800032689A421DD030000EF07CFD0300220029
:1018900039002800FFF79EFF05E094000C1918009E
:1018A0000EF0F8FD2060F8BDD4000C1918000EF001
:1018B000F1FD33F0C3FB20606160F4E794003B511D
:1018C000F1E7002201004020FFF7CEFD0200444373
:1018D0003B190021300012F0EFFAE4E710F7031093
:1018E00070B582B00C0001A9206815F087FC0500D6
:1018F000606815F04FFC0023019A29000AF081FC72
:101900000500A06815F046FC512808D0AE239B00C6
:10191000984206D0502815D00B481AF05BFF0126DC
:1019200000E0002608200AF09CFC0400074B03603E
:1019300000230022310028001AF0ACF9606020007A
:1019400002B070BD0226EDE7149803104C98031006
:10195000F0B58DB00400D0273F061D483B689B00C2
:101960001B581E69DD6819613B689B001B58DA60D3
:1019700063689A0703D1174A1868904218D06846DE
:101980000EF01CFC002815D160681AF07BF90400E9
:101990000EF008FCD02109060D4A0B689B009B58ED
:1019A0001E610B689B009B58DD6020000DB0F0BDF0
:1019B0005960E4E7D0210906054A0B689B009B5853
:1019C0001E610B689B009B58DD6001980EF00AFCBD
:1019D000EC7103204CF20310F0B585B01500D02354
:1019E0001B061B689B001D4A9B581F69DE6801236C
:1019F00005E000201BF0D4F8260027000133022B5D
:101A00000FD883420DD29A005458062CF6D0A20764
:101A1000EFD1134A26689642EBD1012BECD0260079
:101A2000ECE70868830703D10E4B02689A4210D096
:101A3000012201A90EF090FF029A00230199EC20E7
:101A40000AF0DFFB33003A0029001AF023F905B051
:101A5000F0BD32003900FFF77BFFF8E7EC7103209F
:101A6000D0E403104C98031010B50222FFF7B4FF26
:101A700010BD10B50122FFF7AFFF10BD70B5060015
:101A80000D000B4C0B4920000CF074FB00213000C2
:101A90000EF004FC084920000CF06CFB002128002B
:101AA0000EF0FCFB054920000CF064FB70BDC04645
:101AB000A8D20310889803108C9803106485041032
:101AC00070B506000D0000240CE0D521114B124A20
:101AD0004900124831F084FF002300E00023002B6E
:101AE0000FD101346B68A34212D96B689C42ECD2CF
:101AF000E300AA68D358002BF0D0042BECD00123CC
:101B0000EDE7E300AA68D158300012F0EDFCE8E7F9
:101B100070BDC0469498031008990310A89803104C
:101B200070B506000D002B78002B0ED0280036F083
:101B300079FE0400C11E280014F066FF0100300089
:101B400012F0D2FC01342D19EDE770BDF0B585B06F
:101B50000021002012F03EFF03902049FFF7B0FF64
:101B60001F490398FFF7DCFF1E4A03A9012012F06A
:101B70008BFD01AA02A9039812F05AFF029BDE1CFA
:101B8000B60800270DE0441E00280DD0164917485E
:101B90000CF0F0FA2000F6E7154914480CF0EAFAC8
:101BA0000137B74213D23D00AB00019AD05815F06F
:101BB00009FB01000D480CF0DDFAAD19029BAB42A8
:101BC000EAD91223181A0028DDDC1230FBE7094994
:101BD00006480CF0CFFA05B0F0BDC04620FB03105C
:101BE00030D30410B8E40310FCD20310A8D20310C1
:101BF00064850410CC98031070B504001C4B984207
:101C00001ED00EF015FB05001A4E1B4930000CF0DB
:101C1000B1FA002120000EF041FBEA88174930009C
:101C20000CF0EAFE164B9D420DD0164B9D420DD096
:101C3000AD6B002D06D00435002D03D000240BE041
:101C4000FFF784FF70BD65680435F5E72500EFE711
:101C50005968FFF713FF01346B68A342F2D9E30020
:101C6000AA689446634418680028F1D1F3E7C04697
:101C70007A120000A8D20310F0980310F89803100D
:101C80000CFC03101C17041010B5002805D10549E1
:101C900005480CF06FFA062010BD0868FFF7ACFF8E
:101CA000F9E7C04690920410A8D203100B68834253
:101CB00005D9013B1A782E2AF9D10B6000E00B60A0
:101CC000704710B5040009F0ADFD002800D010BD2C
:101CD000200021F093FEFAE710B504001BF0D3FFBB
:101CE000FFF7EFFF02280DD06368991E6D222000D8
:101CF0001CF048F820001BF0C6FFFFF7E2FF0228A7
:101D000000D0002010BD000010B504001BF0BBFF88
:101D1000FFF7D7FF012806D0034920001CF026F862
:101D20002000FFF7D9FF10BDB4990310F0B585B0BE
:101D300006000F00140002AA03A91B4812F078FE47
:101D4000039B002B26D0002512E0010020001BF091
:101D5000F1FE2F2120001BF0AFFF3A0031002000E0
:101D60001BF0E8FE2000FFF7CFFF002810D101355F
:101D7000039BAB420BD900236360AB00029AD0589F
:101D800001A915F03BFA019A002AE6D0DDE7002010
:101D900005B0F0BD3A00310020001BF0CBFE200062
:101DA000FFF7B2FFF4E7C0461470032030B58FB0E0
:101DB00004000D00100019F037F9C20002200243A0
:101DC000B72120001AF00CF96068D0221206204BCF
:101DD00011688900C95809690D9111688900C958AD
:101DE000C9680C9111688900C9580861126892008D
:101DF000D358D86068460EF0E1F9002817D10022C8
:101E00000021280005F0E4F919F03CFF0EF0CAF9B2
:101E10000D98D02109060E4A0B689B009B5818614B
:101E20000C980B689B009B58D8600FB030BD0D9884
:101E3000D0210906064A0B689B009B5818610C9834
:101E40000B689B009B58D86001980EF0CBF9C046F8
:101E5000EC71032070B505000C000B68DA0002235A
:101E60001A43B7211AF0BCF86A6813000121200058
:101E700019F010FF70BD70B582B006000D000800AB
:101E80001BF001FF040001AA696809F0D3FC0228D5
:101E90000ED06B68E318033B1B786D2B0ED020002F
:101EA0000AF0BDF901003000FFF7D4FF02B070BDA9
:101EB000220001993000FFF779FFF7E7200018F0C2
:101EC00065FF010022003000FFF770FFEEE7000021
:101ED000F0B5DE4657464E464546E0B5ABB000AFDE
:101EE0000D6803280AD9CB68994604280AD90B69DA
:101EF0005C10002B07DA00201AF06CFC002406238B
:101F0000994600E000249C230822BA18D118280022
:101F100015F074F90600002C23D19C230822944666
:101F2000BC4463441B68002B00D1B7E0280015F0C7
:101F300031F912F0BBFF051E00D1BAE02E213000AE
:101F400036F0A8FB002803D04B46062B00D1A8E0B2
:101F50002800BD462BB03CBC90469946A246AB46F5
:101F6000F0BD013CD0231B061B689B00CD4A9B584B
:101F70001869BA2110F08EF9051E22D0C308152B5E
:101F800026D0D0231B061B689B00C64A9B581869A5
:101F900004300022C4490AF007FA82460C23F918DB
:101FA000280015F02BF98046FB6843443B615346FB
:101FB000002B21D108330822BA18D118FFF776FE7A
:101FC0001AE08D21B94BBA4A4900BA4831F008FDF0
:101FD000D0231B061B689B00B24A9B581869AA2194
:101FE00010F058F90500CCE708230822BA18D118D8
:101FF0004046FFF75BFE2C00651E002CF4D13A69C9
:1020000042452FD09C2308218C46BC4463441C6865
:10201000002C2AD14346D41AE31DDB08DB006946B5
:10202000CB1A9D466D464346D21A4146280033F0EE
:1020300049FF9C2308229446BC4463441B68002B40
:1020400018D12100280018F055FFC50002231D43B8
:1020500018F0FDFF06009C2308229446BC4463440C
:102060001C605AE794481AF0B5FB4346D31AE418AB
:102070000134D1E73B6942469B1A2E22EA543B6960
:102080004246981A013028189C2308229446BC44E2
:1020900063441A68310033F015FFD2E700201AF0CC
:1020A00099FB811B300018F025FF12F0FFFE0500A0
:1020B0004EE70C2308203A18D218802180333818B4
:1020C000C0181BF081FDAA46AB46012400239846A8
:1020D00032E02F218C250823FA1850191BF0ECFD53
:1020E0004346E21AF1180823F81840191BF022FDA4
:1020F0000823FB185819FFF707FE78603EE001003F
:10210000386812F0BBFE002D49D0002D51D0534647
:10211000002B09D04346E11AF01818F0EBFE01003D
:102120002A00504619F05CFF5B46002B00D1B1E05D
:10213000631C9846AA4601349C2308229446BC445A
:1021400063441B68A34200D2A6E002D0335D2E2B6D
:10215000F1D12100300018F0CDFE38609023082224
:102160009446BC4463441B68002BB2D18C33624656
:10217000D21821003000FFF7D9FD78607B68002B72
:1021800012D19C3308229446BC4463441B68A3428A
:1021900005D1300012F054FE051EB0D1B3E73A6805
:1021A0004649474819F045FC386812F07FFE0500A3
:1021B000ABE7386812F012FE05009C230822944613
:1021C000BC4463441B68A3420AD07B68012B20D027
:1021D0008C230822BA18D1182800FFF74CFE96E786
:1021E0004B460E2BF1D17B68012BEED0A232BA21E7
:1021F000406810F0FCF82A00AA21324810F0F7F8E5
:102200003B68DA0002231A43AA21686810F0EFF84D
:10221000DBE7933308229446BC4463441B683B606D
:1022200090236146CA1812687A601100386814F069
:10223000EBFB0200CA21280019F0D2FE90230821EE
:102240008C46BC4463441B687B6027318C2360460A
:10225000C0181BF031FD1C498C230822B818C01887
:102260001BF084FD8C230822BA18D018FFF734FD28
:10227000022807D0902308229446BC4463447A681D
:102280001A6044E78C230822BA18D1182800FFF7F7
:10229000F2FDEFE7AB464BE74B46062B00D057E687
:1022A0005D4655E6EC710320520600002C990310A0
:1022B000B899031048990310749903109499031066
:1022C00068E90310B06F0320AC99031000B583B028
:1022D0006A46CA2119F0FAFA0098431E9841C0B222
:1022E00003B000BDC368002B05D1002903D08B07C4
:1022F00001D10B68C360704703000069421C1A617A
:102300007047436A5B8B012B03D003699C46614491
:102310000161704710B50400C36ADB6F806A98479B
:10232000A38B01339BB2A383626AD18C8B4200D909
:10233000D38410BDF0B5C64600B506001C000029C8
:1023400007D08B0705D10F004B68FF201840904243
:1023500006D0002901D03000A04704BC9046F0BD53
:102360001B0A9846002505E0AB1C9B00D95930009C
:10237000A04701354545F7DBEFE7000010B5896858
:10238000024B9D22FFF7D6FF10BDC04679590010C1
:1023900010B58968024B6B22FFF7CCFF10BDC04619
:1023A000DD63001010B504008823C26AD3580021F1
:1023B000806A9847E36A5B6B0E21A06A9847CC233A
:1023C000E26AD3580121A06A984703212000FFF751
:1023D00098FF10BD70B50400C36A9B6C0022806A30
:1023E0009847C023E26AD558002300220021A06A42
:1023F000A8472000FFF7D6FF70BD10B5C36A5B6D1C
:1024000089680909806A0022984710BD8068704772
:1024100070B504000800E36A1D6CFFF7F7FF0100C8
:10242000A06AA84770BD10B504000800110022681A
:102430001AF01EFD636A436000238360236A002B49
:1024400005D01A009B68002BFBD1906010BD206264
:10245000FCE70000F0B583B00400038B5B070FD5E9
:10246000428D013A002010E0002809D06A46110090
:102470000500C0CDC0C1190060C960C003CA03C354
:1024800000236384002629E0013A002AF8DBD30008
:10249000E16A8C46634459788D07E5D40028F3D16E
:1024A0000129F1D11800EFE76A680A2A20D114E067
:1024B00001332B7021E0638B032B04D0238B10227C
:1024C000134323831CE068680DF024FE012817DC09
:1024D000F4E7638C5A1C62846B800136638DB342CF
:1024E00015DDF500E36A9C4665442378012BDBD0BB
:1024F000012B02D92B78012BDAD02B78022BDAD0E2
:102500002B78032BE5D06B78DB07E6D5E1E70023DA
:1025100000E00133628D9A420DDDE16ADA0088182D
:102520008A5C042AF5D14278D207F2D4628C4280C8
:1025300001326284EDE76368002B47D00025002656
:102540001AE0234B234A2449244831F049FA013345
:10255000628D9A420FDDE16ADA0088188A5C052AEA
:10256000F5D17A6841688A42F1D14278D207E8D43D
:1025700046800136EBE7013563685A8DAA4209DDD2
:10258000DA6AEB00D718D35C043BDBB2012BF2D83C
:102590000023DDE7002E19DD002303E04A889219AD
:1025A0004A800133628D9A4209DDE06ADA008118BF
:1025B000825C052AF2D14A78D207F2D5EEE7B6B2AC
:1025C000A38BF318A383638CF618668403B0F0BD65
:1025D000DC99031094A80310890D0000009A0310E1
:1025E000F0B5DE4657464E464546E0B585B0070095
:1025F0000D0091469A46002A21DB5346002B24DB2E
:1026000003DD0B8B082213430B834B462B847A6A22
:10261000138B30210B4313837B6A1B78002B4AD129
:10262000B423FA6AD458B86A53464A462900A047E8
:1026300005B03CBC90469946A246AB46F0BD284B3F
:10264000284A2949294831F0CBF9294B254A2949FB
:10265000264831F0C5F901346B8DA34215DDEA6AD5
:10266000E300D018D35C052BF5D179684368994213
:10267000F1D10398C36A5B691E007A880023806ADF
:10268000B04701239C46E344E5E7039B4646984652
:10269000013643465B6A5A8DB24211DDDA6AF300B5
:1026A000D718D35C043BDBB2012BF1D8002443469E
:1026B000B0460393D0E7002600239B46B846E8E7E0
:1026C00047465B46002BABD0B823FA6AD458B86AA9
:1026D000534600934B465A462900A047A8E7C046F8
:1026E000289A0310F8A803105D020000009A031056
:1026F0003C9A03105E020000F0B583B00400019123
:1027000011001A008379581E8341DEB2A58AE78A38
:102710000023A371A382E382114B2000FFF70AFE7E
:10272000A368002B01D003B0F0BDE18A00290CD0D2
:10273000A38A002B09D1A033E26AD3580022A06AF1
:102740009847E36A5B6CA06A9847E28AA38A01997A
:102750002000FFF745FFA671A582E782E3E7C046A8
:10276000B148001070B504000D004379012B06D06C
:102770002969AA684C232000FFF7BEFF70BD436A99
:102780005B8B0A000221FFF74EFE2861F0E770B56F
:1027900005000C004379012B08D0A669E2684623A6
:1027A00031002800FFF7A8FFF08A70BD13000A006F
:1027B0000721FFF738FEA061EFE7000010B5040025
:1027C000838B002B0BD0013B83838423C26AD358B5
:1027D000806A984701212000FFF793FD10BD034B4D
:1027E000034AEC21034831F0FBF8C046509A03102D
:1027F000ACA80310009A031070B504000D008368A4
:10280000002B00D070BD110004480FF0C1FFA06084
:1028100029002000FFF766FDF4E7C046B0EC031086
:10282000F0B5DE4657464E464546E0B58DB004004D
:102830000E00170042714162002303610B78072BE1
:1028400038D1012A06D9436B1B68020008323900CF
:10285000006B9847F3689846002B36D00323454613
:102860001D404246134230D10792FF2352681A405E
:102870009146032A2FD16379032B32D0434619693D
:10288000002954D00F230B400693022B48D10B098B
:10289000752B4FD039D83E2B4ED05E2B3BD14346C3
:1028A0005B690B930AAA19210BA836F031F981460E
:1028B000BA4672E0984A0021FFF79EFF0DB03CBC7B
:1028C00090469946A246AB46F0BD944B944A954932
:1028D000954831F085F8954B914A9549924831F0E9
:1028E0007FF840460C3009AA462136F011F9010064
:1028F000636B9B68099A206B9847B083A368002B91
:10290000BCD0079B1B68E360D8E78A4A934202D198
:102910004B460693C3E7884A2000FFF76DFFCDE7DB
:10292000864A2000FFF768FF02230693B7E70223D9
:102930000693B4E70695B2E701230693AFE7804B11
:10294000774A8049784831F04BF87F4A2000FFF7FA
:1029500053FFB3E77D4B724A7D49734831F040F82D
:10296000012864D1099B1A680F231340022B5ED102
:102970002000FFF7C1FC01005346012B08D9636B0F
:10298000DB68099A12681209206B9847002855D015
:10299000A368002B00D09BE001354D4500D39AE0A1
:1029A000AF000A9BD9590029C9D08B07C7D1FF2393
:1029B0004A681340082BEFD0052BC6D18B68002B3B
:1029C000C8D09A07C6D1CA68002ABED1FF3258685B
:1029D00002402C2AB9D19E681D3A3240022AB4D155
:1029E000D8680028B1D08307AFD10590FF23426893
:1029F0001340302BA9D13609083009AAA42136F09A
:102A000087F8544B9E42ABD0C1235B009E421CD042
:102A1000DD235B009E422DD05346012BB8D9636B5A
:102A20001F69099B02003100206BB847B0E70A9B81
:102A3000D959494A2000FFF7DFFE3FE70A9BD959E1
:102A4000464A2000FFF7D8FE38E701280BD1099B42
:102A50001968CB0707D55346012B99D94910206B2C
:102A6000FDF7E2FD94E70A9BD9593D4A2000FFF7A4
:102A7000C3FE23E701281AD9099B1B68DA0716D57C
:102A80005246012A84D95B100126B8460700AB469E
:102A90001D00BE421AD2B300099A9A58D3070DD529
:102AA00052102900206BFDF7C6FD0136F1E70A9BA5
:102AB000D9592C4A2000FFF79FFEFFE60A9B4246A9
:102AC0009958294A2000FFF797FEF7E65D465FE731
:102AD000059B079315E76379012B07D9636B5B6847
:102AE0000699206B98476379042B04D0A368002BC8
:102AF00000D006E7E2E6236BDA68616A9B688D8B9B
:102B00000869069903910021029101950091053110
:102B100004F02AFBEAE7C0466C9A0310909A03106F
:102B200078A80310A40C0000009A0310B49A0310B4
:102B3000A60C0000F3020000E49A0310F49A0310BC
:102B40001C9B0310D60C0000409B0310649B0310D9
:102B5000E30C0000230200008C9B0310A89B0310D1
:102B6000B89B0310D49B0310FC9B031010B5024AC2
:102B7000FFF742FE10BDC046209C031070B5050053
:102B80000E0014001378002B02D0052B0FD170BD5E
:102B9000013313701100406A1AF025FA2378012BD3
:102BA000F5D1054A31002800FFF726FEEFE7034A7A
:102BB000FFF722FEEBE7C046409C0310609C031029
:102BC00070B50400FF234A681340092B0ED0458BD3
:102BD0000D4B9D420CD0A28BE38B9A420DD3E16A40
:102BE0008E6FD21AA06A2900B04770BD058BEFE73F
:102BF000064A2000FFF700FEEDE7054B054A0649AF
:102C0000064830F0EDFEC046FFFF0000849C031034
:102C1000A49C031054A903100F040000009A031091
:102C200070B514682509732D2BD1022912D1516872
:102C30000A09412A14D09624A400A24214D0124CAE
:102C4000A24215D08E24FF34A24215D104221A606C
:102C5000012017E00D4A2100FFF7CEFD012011E011
:102C6000403A1A6001200DE002221A60012009E0BA
:102C700003221A60012005E0044AFFF7BDFD012090
:102C800000E0002070BDC0460A030000E09C031075
:102C900070B50500002916D00F230B40022B04D07D
:102CA0000A4AFFF7A9FD00200EE00C0920000DF0F4
:102CB00031FA002808DA2200054906480FF038FEEC
:102CC000A860002000E0002070BDC046149D0310E5
:102CD000009D0310DCED0310F0B5C64600B582B0D0
:102CE00005000C00160008AA12789446426A108B60
:102CF00081071FD40F212140022921D0002C31D07F
:102D0000A1072FD10094FF2167683940B1422FD02D
:102D100099423CD0614500D06DE0A36819090223B7
:102D2000184310830527002900D06EE002B004BCD0
:102D30009046F0BD484A21002800FFF75DFDF5E709
:102D40002109AB79002B06D0D38B0133D383002329
:102D500000930127E7E7938B0133938300230093CC
:102D60000127E0E73D4B3E4A3E493F4830F038FE00
:102D7000A3681909AB79002B04D0D38B0133D3831B
:102D80000127D0E7938B013393830127CBE7AB79FE
:102D9000002B1AD10123AB71A168002931D00E3369
:102DA0000B40022B17D08B071FD14968FF230B4024
:102DB0004B2B1AD1138B04210B431383A36800936D
:102DC0009B68019319090327ADE7234A21002800D6
:102DD000FFF712FDAAE7138B04210B431383A368AB
:102DE00019090023009303279DE7204B1C4A204923
:102DF0001D4830F0F5FD1F4B194A1F491A4830F0A5
:102E0000EFFD0023009303278DE70022686A1AF084
:102E100083F880460378002B18D103230370477092
:102E20006B6A5B8B032B00D080E7482E00D07DE7D8
:102E3000009B002B00D179E7D9682800FFF728FF15
:102E4000030142465078184350706FE70B4A210047
:102E50002800FFF7D1FC69E7389D0310489D031057
:102E600030A80310530B0000009A0310649D031058
:102E7000720B00009C9D03107A0B0000CC9D031088
:102E800000B583B050230093013B4E22FFF724FF8F
:102E900003B000BD00B583B04A230093013B482234
:102EA000FFF71AFF03B000BD10B50B004279012AED
:102EB00006D0426AC16A1431806A04F0F1F810BD8C
:102EC000406A1AF029F8FAE710B50B004279012A96
:102ED00006D0426AC16A1C31806A04F0E1F810BD74
:102EE000406A04F0CDF8FAE710B50400436A5A8B43
:102EF000FFF74DFC01002000FFF7E6FF10BD10B505
:102F00000B004279012A06D0426AC16A2431806AE4
:102F100004F0C6F810BD406A04F0B2F8FAE7000009
:102F200030B583B005000C1E06D0CB0706D549107E
:102F3000C36A9B6B806A984703B030BD8B0731D062
:102F40000B090F210C40062C0FD00A2C13D0022C99
:102F500007D0042BF0D0C26A526BD9B2806A904776
:102F6000EAE71900FFF7A0FFE6E7C26AD26B806AC2
:102F700019009047E0E74279042A05D0C36A1B6C28
:102F8000806A06219847D7E701A9180018F064F86D
:102F9000EB6A1C6CAD6A019913F0E2FD0100280098
:102FA000A047C9E7C36A1B690968806A9847FF237D
:102FB000626813403A2B06D89B00064A9B582100B2
:102FC00028009847B8E7044B044A0549054830F003
:102FD00007FDC0466CAA0310E49D031020A803104F
:102FE000240B0000009A0310F0B5D6464F46464623
:102FF000C0B504000D001600022A1CD1EF68002F96
:103000000FD0BB070DD1BA467A68FF2313408E2B31
:1030100015D0FF23524652681340312B36D0322B45
:1030200057D0424A29002000FFF7E6FB1CBC90461F
:103030009946A246F0BD8968FFF772FFDEE7130AE2
:103040009946022E11D0002398464B46013B43453A
:103050000BDD434602339B00524699582000FFF790
:103060005FFF01239C46E044EFE74B4601339B00A2
:10307000DB59002B03D09A0701D19A46C9E7D22128
:103080002B4B2C4A49002C4830F0AAFC022E09D1C7
:10309000E36A9B6EA06A9847E36A1B6DA06A0121F0
:1030A0009847C3E7534699682000FFF739FF012E80
:1030B00005D0E36A1B6DA06A01219847B6E7E36A71
:1030C000DB6DA06A9847E36A1B6DA06A00219847F0
:1030D000ACE7233B524692681340022B0CD1012EE1
:1030E00011D0022E1CD0E36A5B6D5246916809092B
:1030F000A06A0122984799E7DB21104B0D4A49004D
:103100000D4830F06DFCE36A9B6DA06A9847E36A56
:103110005B6D524691680909A06A0022984785E7CD
:10312000E36A5B6EA06A9847DDE7C046689E0310BD
:10313000189E0310D8A80310009A0310449E031091
:1031400070B500290DD08B0715D00F230B40022B33
:1031500024D10909002A0BD0022A09D0FFF7A4FEC6
:103160001FE0F2313D4B3E4AFF313E4830F038FC23
:10317000FFF7AAFE15E04C68FF2323402D2B18D043
:1031800006D8062B08D02C2B08D1FFF72DFF08E01E
:103190002E2B36D09D2B01D1002A03D0324AFFF7C7
:1031A0002BFB70BD220A0B000833002100F066F8EB
:1031B000F7E78C68002CF1D0A3071CD125006368C9
:1031C000FF241C40922C16D1002AE7D1EB68002B7B
:1031D0000AD09A0708D15A68FF241440952C28D0A9
:1031E000962C35D0AC2CD9D02B00083302220021EC
:1031F00000F044F8D5E71D4B194A1D49194830F035
:10320000EFFB002ACAD18C68002C0DD0A30705D192
:103210002500FF2362681340922BD7D000230022A1
:10322000210000F02BF8BCE70023002100F026F875
:10323000B7E79B68002B05D1A9680023002200F0A6
:103240001DF8AEE70B4B064A0B49064830F0C8FBA9
:10325000120A0833A96800F011F8A2E7849E03104F
:10326000ECA80310009A0310689E0310A09E0310A0
:103270001A020000E09E03103F020000D0B5DE46B7
:1032800057464E464446D0B580468B4616001F0032
:103290000B005A1E9341DBB29A46002917D01BD06F
:1032A00003230A001A4091460B4219D1FC334A68A5
:1032B0001340222B03D001235B4299460AE08E3350
:1032C000C26AD35832000021806A984702E0012385
:1032D0005B429946002412E001235B429946F9E7DC
:1032E00001235B429946F5E72E4A4046FFF784FAF0
:1032F0005CBC90469946A246B346D0BD0134B44268
:103300001AD2A300D9590029F8D08B07F6D1FF2390
:103310004A681340222BF1D14B460133E4D1B0234C
:103320004246D26AD358A146D144321B013A49469B
:103330004046806A9847E1E74B4601330DD05B4633
:10334000002B08D04B46002B11D15B469968002218
:103350004046FFF7F5FE002417E0AC234246D26A50
:10336000D358524691194246906A9847E7E700229F
:1033700059464046FFF7E4FEEDE7A300DB599968A4
:1033800000224046FFF7DCFE0134B442B0D253467F
:10339000E3184B45F1D0A300F95800224046FFF74F
:1033A000CFFEF1E7089F0310F8B5DE4657464E46BC
:1033B0004546E0B507000C0015001E00080035F07A
:1033C00047FB00280CD0002D04D1FB6ADB6EB86AE5
:1033D000310098473CBC90469946A246AB46F8BDA2
:1033E000200035F0E5FA00281CD1002C0FD0A307EF
:1033F0000DD1A1466268130A9846FF2313401E2B85
:1034000018D01F2B4FD0202B51D02D2B58D021005E
:103410003800FFF785FDFB6A1B6FB86A3200290090
:103420009847D7E7002DD5D0FB6ADB6EB86A31002C
:103430009847CFE7002D34D13800FEF75DFF834673
:1034400000239A460EE001226A40D2B2534602336C
:103450009B00494659585B463800FFF7A5FF0123FA
:103460009C46E2444346013B5345ECDC02339B005F
:10347000195933002A003800FFF796FFFB6ADB6A10
:10348000B86A59469847A5E7A31C9B004A46995835
:1034900033002A003800FFF787FF01344445F3DB8F
:1034A00098E70024FAE7002DC6D10024F6E70122B0
:1034B0006A40D2B2A16833003800FFF775FF89E790
:1034C000A368002B0FD09A0716D15A68FF23134028
:1034D000922B11D1002D00D17CE7FB6ADB6EB86A1C
:1034E0003100984776E7002D00D073E7FB6ADB6E6A
:1034F000B86A310098476DE7C221034B034A49007F
:10350000034830F06DFAC046A09E0310CCA803100B
:10351000009A0310F0B5D6464F464646C0B50500A2
:103520000C0092469846FEF7E7FE07002800FEF7DB
:10353000E3FE8146EB6ADB6A3900A86A98478C2370
:10354000EA6AD3584946A86A98470022A168280029
:10355000FFF7F6FD2469002C0CD0FF2163681940A9
:10356000AD2927D13B000022A1682800FFF71CFFEE
:10357000E468F0E751462800FFF7D2FC6B6A19783F
:10358000062908D0A823EA6AD35842469200053299
:10359000A86A984721E0CC23EA6AD3580021A86A98
:1035A000984701212800FEF7ACFEEB6A1B6EA86A63
:1035B000984712E0AC2924D1E1682800FFF7B0FC5D
:1035C0008823EA6AD3580121A86A98474346013301
:1035D000524621002800FFF79DFFEB6ADB6E3900A1
:1035E000A86A9847EB6ADB6A4946A86A984790231D
:1035F000EA6AD358A86A98471CBC90469946A246E6
:10360000F0BD034B034A0449044830F0E9F9C046D1
:10361000249F031050A80310B60B0000009A03105B
:10362000F8B504000D0011004271456200230361EA
:10363000C36A1B682A00806A984706212000FEF7AB
:1036400060FE6379012B49D0EE68002E06D0B307E7
:1036500004D1FF23726813403F2B43D02B78002BFB
:1036600054D0072B69D0022B00D1A7E0DA1ED2B2CA
:10367000032A00D93AE1002E00D1DAE0B30700D0E6
:10368000D7E073681B0A022B00D0D8E0F768002F40
:1036900000D1DBE0BB0700D0D8E0FF237A681340FD
:1036A000AC2B00D0D2E06379012B00D1D4E0E36AE7
:1036B0001B693168A06A98472B78032B00D1D3E0AF
:1036C000042B00D1F9E0052B00D0D4E09B33E26A53
:1036D000D35803220021A06A9847CCE00023AB8492
:1036E000EB84B1E72B78002B09D1B1682000FFF7FC
:1036F00017FCC423E26AD358A06A984714E0C0219B
:10370000AD4BAE4A0901AE4830F06AF931002000F5
:10371000FFF706FCE36A5B6B0E21A06A9847C4239F
:10372000E26AD358A06A9847E36A5B68A06A984740
:10373000A38B002B00D038E1F8BD002E1ED0B307BC
:103740001CD1FF2372681340032B1DD16379012B19
:1037500020D071692000FFF7E3FBE36A9B68A06A51
:1037600098470028E0D1E36A5B6B0E21A06A984776
:10377000C423E26AD358A06A9847D5E7914B8F4A91
:1037800091498F4830F02CF9904B8C4A90498C48E5
:1037900030F026F90023A3718E4B4622F1682000F9
:1037A000FEF7C8FD6B8B032BD3D131692000FFF7E7
:1037B0006FFA8301288B18432883CAE7002E23D091
:1037C000B30721D173681B0A032B23D1E36A1B695A
:1037D0003168A06A98476379012B21D0F1682000F5
:1037E000FFF79EFB2B8BDB0708D5E36A1B6EA06AF5
:1037F0009847E36A5B6B0E21A06A9847C423E26A8C
:10380000D358A06A98478FE76E4B6C4A72496C4850
:1038100030F0E6F8714B694A7149694830F0E0F8D8
:103820000023A3716F4B4C22B1682000FEF782FD8C
:10383000D4E7644B614A6C49614830F0D1F8C42147
:103840006A4B5E4A09015E4830F0CAF8684B5B4A31
:1038500068495B4830F0C4F803220121606A19F01E
:103860005BFB0123AB8322E79D33E26AD35801223D
:103870000021A06A98472B78062B26D1E36A5B6C5F
:10388000A06A984701212000FFF70EFBE36A5B6CFA
:10389000A06A9847E36A5B6CA06A9847B268002305
:1038A00039002000FFF736FE2B78062B18D0C423F2
:1038B000E26AD358A06A984736E79C33E26AD35845
:1038C00002220021A06A9847D5E701212000FFF7D6
:1038D000EBFA8823E26AD3580121A06A9847DDE712
:1038E000E36A5B6B0E21A06A9847E0E7012B37D1B2
:1038F000002E3BD0B30739D1FF2372681340382B19
:103900003BD16379012B3ED017212000FFF7CCFA81
:1039100016212000FFF7D8FAE36ADB6BB2681109C1
:10392000A06A98471A212000FFF7CEFA31692000DB
:10393000FFF7F6FA0A21280019F0DDFA002828D04E
:103940000378032B2BD0E36A5D69428800230A21A8
:10395000A06AA847C423E26AD358A06A9847E3E65E
:10396000254B164A2549164830F03AF8C721154B21
:10397000124A0901124830F033F8214B0F4A21490D
:103980000F4830F02DF803220A21280019F0C4FA5C
:10399000BAE71D4B094A1D49094830F021F8E36A8E
:1039A0005B6B0E21A06A9847D4E7C921184B034AE4
:1039B0000901034830F014F8709F031068A8031041
:1039C000009A0310909A03100C0C0000B49A031094
:1039D0000E0C0000952E0010250C00008C9F03108B
:1039E000270C0000812E00103E0C0000B89F031031
:1039F000E49F0310410C000020A003106F0C000096
:103A00003CA00310720C00006CA00310840C00009A
:103A100078A00310F0B5CE46474680B591B08146F8
:103A20000D0014003422002103A832F045FA02955B
:103A300002AB1C7101235B4202AA13835383684AC1
:103A4000BE33FF33D35C4A461268002102A8FEF75A
:103A5000EAFC060003F0FEFA80460C90614B0D93E1
:103A60000A9D002715E00122290002A8FFF7D8FDD2
:103A7000002403E0280019F0B6FA01346B8DA3424C
:103A800014D9EA6AE300D118D35C012BF5D1F1E730
:103A9000AD68002D0FD0049B002B0CD16B8B042B39
:103AA000E1D10122290002A8FEF7BAFE069BBB4223
:103AB000EED91F00ECE70A9C03E02000FEF7CAFCE9
:103AC000A468002C02D0049B002BF6D0390040469D
:103AD00003F0C5FA0A9C00252AE00E9B002B11D0AA
:103AE00000230C93404B0F930322210002A8FEF702
:103AF00097FE049B002B1AD10422210002A8FEF796
:103B00008FFE14E0380004F089F80E90E8E7002DED
:103B10001ED0364B0D930C950222210002A8FFF710
:103B20007FFD049B002B1AD0049B002B1DD0A468A2
:103B3000002C20D0049B002B1DD1638B042BCCD0F8
:103B4000023B012BE3D943460C93264B0D93E3E74D
:103B50003A0006A904A807F0F3FA0500D9E7032202
:103B6000210002A8FFF75CFDDEE70422210002A885
:103B7000FFF756FDDBE7049B002B0CD00B9BD968AD
:103B800002A8FEF7AFFB0B9B0193DB8A059A049812
:103B900002990EF009FF404603F069FA002D02D0A9
:103BA000280007F0EBFA0E98002801D004F04BF83B
:103BB000484634F09DFF356904E0B468300019F0E0
:103BC00091F92600002EF8D10498002805D128008C
:103BD00011B00CBC90469946F0BD0CF003FBC046FA
:103BE000706F03209CAE031020B40310BCBD031003
:103BF00010B50400436A1B78072B01D0022B12D1A9
:103C00008968002913D1E36A5B6B0E31A06A98477B
:103C1000CC23E26AD3580021A06A984701212000F2
:103C2000FEF76FFB10BD104AFEF7E6FDFAE78B07C3
:103C300004D1FF234A681340AF2B0DD02000FFF7BB
:103C40006FF9CC23E26AD3580021A06A984701217A
:103C50002000FEF756FBE5E789682000FFF760F9D2
:103C60002000FEF79FFBDDE794A0031070B5040071
:103C70000D0016000F230B40022B15D13100200040
:103C8000FFF74EF9E36A9B6DA06A9847666A33783E
:103C9000033BDBB2032B01D8736863622909200060
:103CA000FFF712F9666270BD014AFEF7A5FDE5E770
:103CB000689E031010B5CA688968FFF7D7FF10BD6A
:103CC00070B5040016004B681B0A022B21D1CD6889
:103CD000002D24D0AB0722D1FF236A681340AC2B00
:103CE0001DD14379012B20D00023002269692000D7
:103CF000FEF776FCE9682000FFF712F9062E1CD0CB
:103D0000BC23E26AD558A06A002300220121A847FB
:103D100070BD0D4B0D4A0E490E482FF061FE0E4B43
:103D20000A4A0E490B482FF05BFE436A5B8B0A0080
:103D30003100FEF778FB6861D6E78823E26AD35842
:103D40000021A06A9847DBE7B89F0310ACA70310D7
:103D500098090000009A0310E49F031099090000DD
:103D6000F0B5D6464F464646C0B586B0814603916B
:103D700002921E0005AAA42103A834F0C9FE8246BF
:103D8000002400230193009398461D0036E0EB07C2
:103D900003D401231D4300972FE05B4A39004846B6
:103DA000FEF72AFD68E0AB0703D402231D43019709
:103DB00023E0564A39004846FEF71EFD5CE09A684B
:103DC000B9684846FFF752FF013616E0504A3900FD
:103DD0004846FEF711FD4FE0062239004846FFF73E
:103DE0006FFF013609E0002D41D14346002B49D138
:103DF00039004846FFF794F801360134544547D25C
:103E0000A300059A9F58002FEDD0BB07EBD1FF23ED
:103E10007A681340A62BBAD0A72BC4D0A82BE2D126
:103E2000FB68002B06D09A0704D1FF2259680A408C
:103E3000AA2AC4D0002B06D09A0704D15A68FF23BF
:103E40001340AC2BC8D0B9680F230B40022BBDD157
:103E50004B46DB6ADB6B09094A46906A9847F9686A
:103E60004846FFF75DF801239C46E044C5E7294A30
:103E700039004846FEF7C0FC06B01CBC9046994687
:103E8000A246F0BD244A39004846FEF7B5FCF3E7E8
:103E90004746A846002D0FD0009B002B1AD0009B50
:103EA00099684846FFF73CF8019B002B19D0019B0D
:103EB00099684846FFF734F8029B002B18D0C023BE
:103EC0004A46D26AD4584B46986A43463A00310073
:103ED000A047D1E74B46DB6A5B6C4A46906A98473D
:103EE000E2E74B46DB6A5B6C4A46906A9847E3E739
:103EF000BC234A46D26AD4584B46986A43463A0095
:103F00003100A047B8E7C046B0A00310C8A0031016
:103F1000E0A0031004A1031020A1031070B5040059
:103F20000D004379012B23D0E36ADB6CA06A98472C
:103F30006E690023002231002000FEF751FBE36A86
:103F4000DB6BF18AA06A9847E968002909D003234E
:103F50001A000A400B4204D1FC3348680340A32BEB
:103F60000DD0022300222000FFF7FAFEF08A70BD78
:103F700013000A000121FEF756FA6861D4E7110028
:103F8000EFE710B50400436A5A8BFFF7C7FF010043
:103F90002000FEF799FF10BD10B5896800230022AC
:103FA000FFF7DEFE10BD70B504000D00C968FEF716
:103FB000B7FFA9682000FEF7B3FF70BD70B504001D
:103FC0000D00FF234A681340342B19D0C36A5B6B82
:103FD0000E21806A9847FF236A681340352B1DD154
:103FE000AD68002D20D1E36A5B6B0E21A06A984773
:103FF000A023E26AD358A06A04220221984770BD28
:104000008968FEF78DFFED68002D01D0AB07E2D087
:104010003C4B3D4A3D493E482FF0E2FC3D4B3A4A7D
:104020003D493B482FF0DCFCAB075ED1FF236A68BB
:1040300013409A2B0DD09B2B26D029002000FEF791
:104040006FFFA023E26AD358A06A04220221984796
:10405000D5E7E36A5B6B0E21A06A9847A96800293F
:1040600007D1A023E26AD358A06A042202319847FC
:10407000C5E72000FEF754FFA023E26AD358A06AE8
:10408000042203219847BAE7A9682000FEF748FFF9
:10409000EB68002B11D09A070FD1FF2259680A4014
:1040A0009C2A11D19968002914D1A023E26AD3581F
:1040B000A06A042202319847A1E7A921114B124AB4
:1040C000090113482FF08CFC144B0F4A1449104877
:1040D0002FF086FC2000FEF723FFA023E26AD358CE
:1040E000A06A04220321984789E729002000FEF7EF
:1040F00017FFA023E26AD358A06A0422022198473E
:104100007DE7C04644A103100CA80310740A000008
:10411000009A03106CA103107B0A0000A0A10310F9
:10412000920A000010B504008968FEF7F9FEE36A00
:104130001B6DA06A0021984710BD0000F0B5CE4667
:10414000474680B583B0040016008D68002D0AD163
:10415000002A00D1CBE0A023C26AD358806A022291
:1041600000219847C3E0AB0700D0B5E0FF236A68A1
:104170001340372B23D09F2B00D0ADE0E8680028F8
:1041800030D09C3B1F00074003422BD1FF234268E5
:104190001340A12B2CD0AC2B00D091E0AB68002BAE
:1041A00007D09A0705D15A68FF231340372B00D157
:1041B0008CE0052229002000FFF782FD97E0002E09
:1041C00006D06933C26AD35802220121806A984717
:1041D00029002000FEF7A4FEA423E26AD358A06AB7
:1041E000984784E0444B454A454946482FF0F8FB40
:1041F000083001AAA22134F08BFC8046A96800296E
:1042000006D08B0704D1FF234A681340372B05D013
:104210002000FEF785FE0023994623E0002E06D0FD
:104220006933E26AD358411C0222A06A9847A96800
:104230002000FEF775FEA423E26AD358A06A9847CF
:10424000012399460EE000262000FEF769FE4B464A
:10425000002B21D0002E19D0A423E26AD358A06AE3
:104260009847013747451FD2BB00019AD158002912
:10427000E9D08B0706D1FF234A681340372B03D0C0
:104280000026E1E70026DFE70126DDE71E4A2900D8
:104290002000FEF7B1FA2AE0002EE2D01B4A2900E6
:1042A0002000FEF7A9FA22E04B46002B1FD1A033D5
:1042B000E26AD35841460131A06A0322984716E0CA
:1042C000134B0E4A13490F482FF08AFB0422290092
:1042D0002000FFF7F5FC0AE029002000FEF720FE91
:1042E000A023E26AD358A06A03220121984703B0B1
:1042F0000CBC90469946F0BD44A10310F0A70310F2
:10430000080A0000009A0310D0A10310F0A10310C6
:1043100010A20310430A000010B50122FFF70EFFA0
:1043200010BDF0B5C64600B505001600002907D13E
:1043300000239846002E12D073681F0A00240BE059
:10434000FEF7EEFD01239846F4E7A31C9B00995964
:104350002800FEF7E5FD0134BC42F6DBB844A0239B
:10436000EA6AD358A86A00224146984704BC90469E
:10437000F0BD000010B58968002919D08B071BD14A
:10438000FF234A681340922B16D1CA68002A19D01D
:10439000930708D1FF2354682340952B18D0962B00
:1043A00024D0AC2B26D00A000021FFF7BAFF10BDA5
:1043B0000022FFF7B6FFFAE7104B114A11491248E5
:1043C0002FF00EFB114B0E4A11490F482FF008FB3E
:1043D0009368002B04D189680022FFF7A2FFE6E76B
:1043E0000C4B074A0C4908482FF0FAFA8968FFF786
:1043F00098FFDCE70622FFF763FCD8E7A09E0310D6
:10440000C4A70310B5090000009A031040A20310CE
:10441000B7090000E09E0310BC09000010B50A00B7
:104420000021FFF77EFF10BDF8B5CE46474680B5A8
:1044300007000C008968FEF773FDE368002B4FD07E
:104440000C229046A0445D68F3322A408E2A0BD09D
:1044500001257B6A1B78072B0BD0A2680F23134022
:10446000022B5CD0002491E02D0A863A90469844B5
:10447000EFE7A26808331340022BEED112099A2A03
:10448000EBD143461A68FF2351680B40302BE4D12F
:104490009368002BE1D10A213800FEF705FD7A6A06
:1044A000D36A528D002A15D05978C90702D4013A2F
:1044B0000833F7E759683800FEF7F6FC022D13D8E9
:1044C000BC23FA6AD458002300220221B86AA0470C
:1044D00001245BE043461968414A3800FEF78CF935
:1044E0000CBC90469946F8BD43465A685368DBB207
:1044F000322BE5D143469C686368DBB2302BDFD1B9
:10450000FB6A9B6C916809090122B86A98470023ED
:104510000122A1683800FFF723FC032436E01209CA
:104520004623FF339A4201D000242FE043461A6805
:10453000FF2351680B40302B01D0002426E0946803
:10454000002C23D02D3B1A002240234245D1616824
:10455000FC330B402F2B01D0140017E08D33FA6A87
:10456000D458002300220021B86AA04743461B68A4
:10457000996800223800FFF7E1FD012406E0A3005E
:10458000424699583800FEF7CBFC0134A542A7D922
:10459000661CAE42F3D2A30042469A58FF235168EC
:1045A0000B40322BEBD1B30041465B589946FF23B9
:1045B000494649680B40302BE1D1FB6A9B6C9168FE
:1045C00009090022B86A98474B46996800230122DE
:1045D0003800FFF7C5FB3400D7E70024D6E7C04614
:1045E00068A2031010B50400436A1B78072B01D0A2
:1045F000022B06D12000FFF717FF2000FDF7D2FEA7
:1046000010BD024AFEF7F8F8FAE7C04680A2031090
:1046100070B504000D00C968FEF782FCA96809099D
:10462000C9B232290FD03E39C9B2012905D8982321
:10463000E26AD358A06A984770BD044B044A054902
:1046400005482FF0CDF90221F1E7C0469CA20310E6
:1046500098A70310CF080000009A0310F8B50500D2
:104660000E004B681F0A8968FEF75AFC0124631C80
:10467000BB4212DA02339B0099592800FEF750FC26
:104680000234A30099590909C9B22339C9B29C233C
:10469000EA6AD358A86A9847E9E7F8BDF0B5C64674
:1046A00000B505000E004B68DBB20D3BDBB298464F
:1046B0004B681F0A8968FEF733FC0124BC420DDAFF
:1046C000A31C9B0099592800FEF72AFC9C23EA6A48
:1046D000D3584146A86A98470134EFE704BC904696
:1046E000F0BD0000F8B5CE46474680B505008846C7
:1046F0004B681F0A8968FEF713FC032F03DC0023B5
:104700009946012418E02800FDF7F6FD8146F8E7F8
:104710001B09DBB2242B41D0333BD9B29C23EA6A7C
:10472000D358A86A9847BE4205DAEB6A5B6F4A46DF
:104730000021A86A98473400631CBB424BDA02335D
:104740009B00424699582800FEF7EAFBA61CBE4291
:1047500007DAEB6A9B6DA86A9847EB6A9B6EA86ABA
:1047600098470234A4004346E3580F221A400E2A09
:10477000CED0002B14D09A0712D1FF2259680A40DC
:10478000852A14D0862A19D19B68002B1CD19C3312
:10479000EA6AD3580721A86A9847C4E70621BDE70B
:1047A0008921204B204A090120482FF019F99C2328
:1047B000EA6AD3583221A86A9847B4E71C4B1A4AD0
:1047C0001C491A482FF00CF99C23EA6AD35833216C
:1047D000A86A9847A7E7032F03DC0CBC90469946CC
:1047E000F8BD2800FDF788FD0400EB6ADB6E0100D0
:1047F000A86A9847EB6ADB6A4946A86A9847EB6A59
:10480000DB680121A86A9847EB6A5B6EA86A984743
:10481000EB6A1B6EA86A9847EB6ADB6AA86A2100FC
:104820009847DAE7D0A2031084A70310009A031078
:10483000F8A203109608000010B504008968FEF77E
:104840006FFB9823E26AD358A06A0321984710BDF2
:10485000F8B5CE46474680B505008846FF274B6829
:104860001F401E3F7B425F41FFB2FDF745FD814681
:1048700043465B681E0A0024B44210DAA31C9B0066
:10488000424699582800FEF74BFB0134B442F3DA54
:10489000EB6A5B6F4A463900A86A9847ECE7EB6A17
:1048A000DB6AA86A494698470CBC90469946F8BD11
:1048B00070B504000F230B40022B2AD0002921D011
:1048C0008B071FD1FF234A681340492B24D04F2B5D
:1048D00022D04A2B22D0502B20D05A1C07D0482B54
:1048E0001DD04E2B1ED18E68CD68002D20D1A3790E
:1048F000002B13D1E38A002B10D0284A2000FDF7AB
:104900007BFF0BE0A321264B264A890026482FF087
:1049100067F801235B42DAE70123A37170BD8E685B
:104920000D69E2E7214B1F4A21491F482FF058F833
:10493000A379002B2AD0A38A01339BB2A382012B37
:104940000ED029002000FEF7EBFAE36ADB6B310999
:10495000A06A9847A423E26AD358A06A9847DDE783
:10496000E18A00290DD09F33E26AD3580022A06A61
:104970009847A023E26AD35802220021A06A9847F0
:10498000DFE7E36A5B6CA06A9847F2E7E38A0133EA
:10499000E38229002000FEF7C3FABFE730A303102B
:1049A000489D031014A90310009A031010A30310CC
:1049B000B1020000F0B5C64600B504000E00CD6897
:1049C000002D33D0AB0731D1FF236A681340812B10
:1049D0002CD1FDF791FC80462000FDF78DFC0700EF
:1049E00043460022A9682000FEF7DEFCB1682000E3
:1049F000FEF796FAE36ADB6E3900A06A9847E36A2D
:104A0000DB6A4146A06A9847E36ADB6801214942B4
:104A1000A06A9847E9682000FEF782FAE36ADB6A39
:104A2000A06A3900984704BC9046F0BD024B034A87
:104A3000034904482EF0D4FF60A3031054AA0310C6
:104A400034080000009A0310F8B5CE46474680B5FA
:104A500004000D0016009846002906D11900FEF743
:104A60005FFA0CBC90469946F8BDFDF745FC8146BF
:104A70003768002F06D0BB0704D1FF237A681340A4
:104A80007B2B20D039002000FEF74AFA002249464D
:104A90002000FDF73FFCE36A1B6EA06A9847321DB9
:104AA000691E43462000FFF7CFFF8023E26AD358F8
:104AB0004946A06A984703212000FDF722FC200008
:104AC000FDF77CFECDE7B9682000FEF729FA002249
:104AD00049462000FDF71EFCF96800222000FEF781
:104AE0002FFBDCE730B583B005000C000800083070
:104AF00001AA7A2134F00CF8011E06D0E368019A6D
:104B00002800FFF7A1FF03B030BD034B034A04495F
:104B100004482EF065FFC046A0A3031000AA0310AE
:104B2000EB060000009A0310F0B5DE4657464E46ED
:104B30004546E0B585B004000E0093460293FDF7AC
:104B4000DBFB05002000FDF7D7FB070003900122E7
:104B500029002000FDF7DEFB31002000FEF7E0F920
:104B60009423E26AD35800223900A06A9847E36A86
:104B7000DB6A2900A06A9847D023E26AD358A06A6A
:104B800098472000FDF7B8FB8046002763E0CA2164
:104B90005E4B5F4AC9005F482EF022FF03231A00D4
:104BA0002A402B4206D12900FC3368680340762B4B
:104BB0007AD09246E36A9B6DA06A9847290020004C
:104BC000FEF7AEF99C23E26AD3580821A06A984701
:104BD000E36A1B6F019A0021A06A98475346002B95
:104BE00067D15546E36A1B6EA06A9847002D66D1CF
:104BF000A946F1682000FEF793F9002D19D0E36A69
:104C00005B6B0E21A06A9847E36ADB6A4946A06A9B
:104C10009847E36A5B6B0E21A06A98472900200041
:104C2000FEF752F929002000FEF769F92000FDF790
:104C3000C5FD9423E26AD35801224146A06A9847F1
:104C4000E36ADB6A0199A06A9847E36ADB6801219D
:104C5000A06A984701375F453BDABB00029A91464C
:104C600099444B461E68002E91D003231A0032400F
:104C7000924633428BD1FC3372681340752B86D138
:104C80002000FDF739FB0190B568002D86D17B1C13
:104C90005B45A7D04B4619681F4A2000FDF7ACFDC5
:104CA0002000FDF78BFD2AE0AD68CB681B099A4612
:104CB00080E751462000FEF707F9554696E72000A9
:104CC000FDF71AFB8146022201002000FDF722FBBE
:104CD0008FE72000FDF772FDD423E26AD358A06A63
:104CE0009847E36ADB6A0399A06A98470E99200007
:104CF000FEF716F9E36ADB6AA06A4146984705B0F9
:104D00003CBC90469946A246AB46F0BDA8A3031012
:104D1000C4A90310009A0310E8A30310F0B585B0EE
:104D200004000F0016000393FDF7E6FA05000222C7
:104D300001002000FDF7EEFA002E2AD10A9B002B7D
:104D400021D1E36ADB680321A06A9847390020007B
:104D5000FEF7E6F8E36ADB6803214942A06A984758
:104D6000E36A5B6B0E21A06A9847E36ADB6A29005D
:104D7000A06A98470B992000FEF7D2F82000FDF7B3
:104D80001DFD05B0F0BD074B074A084908482EF045
:104D900027FE0A9B0093039B320039002000FFF797
:104DA000C3FEDDE708A40310D8A90310A306000082
:104DB000009A031070B584B006000C00CD68002D79
:104DC00018D0AB0716D1FF236A681340782B17D091
:104DD000742B1ED008000C3003AA772133F098FE04
:104DE0000200A16800230093039B3000FFF79CFEA4
:104DF00004B070BD154B164A164917482EF0F0FD49
:104E00008968AB680193002300930022FFF786FFB7
:104E1000EEE72800083003AA772133F079FE02007C
:104E20002B69002B07D1A168EB680093039B30002E
:104E3000FFF77AFEDCE7A1689B680193EB680093BB
:104E4000039B3000FFF76AFFD2E7C04644A103107E
:104E5000ECA90310B2060000009A0310F0B5DE467C
:104E600057464E464546E0B587B00400039104928C
:104E70001E00038B9946438B9846C38B9B46FDF7D8
:104E80003BFA050005902000FDF736FA0700258360
:104E90006083A38BE3832000FDF72EFA02902000AD
:104EA000FDF72AFA01900125354069426941CBB2EC
:104EB0009A46002D00D18EE004992000FEF730F8CC
:104EC000E36ADB6E0199A06A9847E36ADB6A02999C
:104ED000A06A9847E36A9B6DA06A984700220399ED
:104EE0002000FEF72DF911992000FEF719F8E36A6A
:104EF000DB6A3900A06A984710992000FEF710F885
:104F00009C23E26AD3580E21A06A9847E36ADB6AC1
:104F10000199A06A9847002D62D1E36ADB6DA06A0F
:104F20009847E36A5B6EA06A9847109BDB0760D5E1
:104F3000109B002B63DB9C23E26AD3580021A06AFC
:104F40009847E36A1B6F029A0121A06A98474B4673
:104F50002383434663835B46E383129B002B55D038
:104F6000E36A1B6EA06A9847002D03D1E36A1B6EAB
:104F7000A06A984712992000FDF7D2FF2000FDF7A4
:104F8000BBF90600E36ADB6E0100A06A9847E36A9A
:104F9000DB6851460131A06A9847E36ADB6A0599EC
:104FA000A06A9847E36A1B6EA06A9847002D03D158
:104FB000E36A1B6EA06A9847129B002B04D0E36A39
:104FC000DB6AA06A3100984707B03CBC904699461E
:104FD000A246AB46F0BD31002000FDF7A1FF6BE714
:104FE000E36A9B6DA06A984731002000FDF798FFA7
:104FF0009BE7074B074A084908482EF0F1FC9C2321
:10500000E26AD3580121A06A98479AE7129EC4E742
:1050100028A40310A0A90310C3050000009A0310E0
:10502000F0B5DE4657464E464546E0B587B004002B
:105030000D000F238A681340022B09D1CB68002B87
:1050400006D09A0704D1FF2259680A402C2A61D061
:10505000238B9B46638B9A46E38B99462000FDF792
:105060004BF907002000FDF747F90600BAB260834C
:10507000A38BE3835A4B134323832000FDF73CF9B2
:105080008046E9682000FDF74BFF8823E26AD35889
:105090000121A06A9847E36ADB6A3100A06A984759
:1050A0008C23E26AD3584146A06A98470022A96837
:1050B0002000FEF745F829692000FDF731FFE36A7B
:1050C0009B68A06A9847002804D1E36ADB6E310030
:1050D000A06A9847E36ADB6A4146A06A9847902332
:1050E000E26AD358A06A98475B462383534663839A
:1050F0004B46E38369692000FDF712FFE36ADB6A30
:10510000A06A3900984707B03CBC90469946A24631
:10511000AB46F0BD99681D3A0A40022A98D10909A8
:105120007C2995D1DA68FF2351680B40302B00D0E1
:105130008EE79368049305AAA42104A833F0E8FC41
:10514000431E022B38D801280DD0022829D0059BF8
:105150001E685F689B689846DB0729D543465B104D
:1051600028D0012305E0059B1F68060001230322C8
:105170009046002B08D0002E06D0B20704D17268EA
:10518000D2B2A63A022A28D9002B16D0002F14D06A
:10519000BA0712D17A68D2B2A63A022A0DD80023F1
:1051A0000BE0059B1E685F68012303229046E0E741
:1051B0000023DEE70023DCE70023002B00D147E7D4
:1051C0006B6902932B690193434600933B003200C5
:1051D000A9682000FFF742FE95E70023EDE7C046EF
:1051E0000080FFFFF8B5DE4657464E464546E0B51F
:1051F00004000D00038B9A46438B9946C38B984657
:10520000FDF77AF806002000FDF776F80700268300
:105210006083A38BE383A86833F01AFC002814D0C2
:10522000534623834B4663834346E3832969200027
:10523000FDF776FEE36ADB6AA06A310098473CBC62
:1052400090469946A246AB46F8BD2000FDF754F8BB
:105250008346A86833F0ACFB002804D1E36ADB6E18
:105260003900A06A9847E36ADB6A5946A06A984702
:10527000E9682000FDF754FEE36ADB6A3900A06AA2
:1052800098475B460122A9682000FEF78DF8C7E722
:10529000F0B5D6464F464646C0B582B006008946B0
:1052A000FDF72AF880464B46986833F0D1FB00287A
:1052B0002DD13000FDF720F80400030000224946FC
:1052C00089683000FEF770F84B46D9683000FDF76A
:1052D00027FE4B46986833F06BFB002863D14B46A2
:1052E0001B69002B03D14B465B69002B0AD0F36A84
:1052F0009B68B06A9847002804D1F36ADB6E414688
:10530000B06A9847F36ADB6A2100B06A984748465A
:10531000103001AA712133F0FBFB070000250BE0E0
:10532000264B274A274928482EF05AFBF36ADB6AA6
:105330005146B06A98470135BD422FD2AB00019A61
:105340009C58002CECD0A307EAD1FF2362681340DD
:10535000722BE5D1A06833F07BFB0028EBD1300045
:10536000FCF7CAFF824603000022A1683000FEF766
:105370001BF8E1683000FDF7D3FDA06833F018FB9F
:10538000002810D1F36A9B68B06A98470028CDD1F5
:10539000F36ADB6E4146B06A9847C7E74B465969E6
:1053A0003000FDF7BDFDF36ADB6AB06A41469847FD
:1053B00002B01CBC90469946A246F0BD4CA4031016
:1053C00090A9031047050000009A0310F0B5DE46CF
:1053D00057464E464546E0B585B004000D00CB6803
:1053E0001B099B46FCF788FF03902000FCF784FF15
:1053F00000902000FCF780FF01902000FCF77CFF6C
:105400000290E9682000FDF78BFDE36A9B6C0022A7
:10541000AA21A06A9847C023E26AD6580023002236
:105420000021A06AB04759462000FDF74DFD238BAF
:105430009A46638B9946E38B98462000FCF75CFF05
:1054400007002000FCF758FF060027836083A38B2A
:10545000E383E36ADB6A0100A06A984701220099AE
:105460002000FCF757FF59462000FDF71DFDAC2139
:105470002000FCF7AFFF0022A9682000FDF760FEC6
:1054800094239B46E36A5A469B5800220199A06ADE
:105490009847E36ADB6A0099A06A9847D023E26ADA
:1054A000D358A06A9847E36A9B6DA06A9847E36A5D
:1054B0009B695C210122FF31A06A98479C23E26A24
:1054C000D3580821A06A9847E36A1B6F029A00210B
:1054D000A06A9847E36A1B6EA06A9847E36A5A4637
:1054E0009B58933A039883460100A06A9847E36A61
:1054F000DB6A0299A06A9847E36ADB680121A06A27
:1055000098472000FDF75AF9D423E26AD358A06ADD
:105510009847E36ADB6A0199A06A984729692000E5
:10552000FDF7FEFCE36ADB6E3100A06A9847534644
:1055300023834B4663834346E383E36ADB6A59462E
:10554000A06A984769692000FDF7EAFCE36ADB6A14
:10555000A06A3900984705B03CBC90469946A246DF
:10556000AB46F0BDF0B5DE4657464E464546E0B583
:1055700083B004000D0016009B46002909D11900D4
:10558000FDF7CEFC03B03CBC90469946A246AB4624
:10559000F0BDFCF7B1FE82462000FCF7ADFE81466F
:1055A0002000FCF7A9FE01902000FCF7A5FE804634
:1055B0003768002F07D0BB0705D1FF237A68134057
:1055C0007B2B00D1E2E039002000FDF7A9FCE36A63
:1055D0009B6DA06A9847A8212000FCF7FBFEE36AB8
:1055E0001B6EA06A9847022251462000FCF792FEEB
:1055F000E36ADB680321A06A9847321D691E5B4697
:105600002000FFF7AFFFE36ADB6803214942A06A8D
:105610009847E36A5B6B0E21A06A9847E36A5B6E6A
:10562000A06A9847E36ADB6E4946A06A9847E36A36
:10563000DB6A5146A06A9847E36A9B6DA06A984767
:10564000E36A9B6901222121A06A98479C23E26AB0
:10565000D3580821A06A9847E36A1B6F019F3A005C
:105660000021A06A9847E36A9B6DA06A9847E36AA5
:105670009B6EA06A9847E36A5B6EA06A9847E36AEC
:105680009B6C0022A921A06A9847E36A9B6EA06ADE
:105690009847E36A9B6EA06A9847E36A9B6DA06A8D
:1056A0009847E36A5B6D00220A21A06A9847E36A83
:1056B0005B6EA06A9847E36A5B6B0E21A06A98470D
:1056C000C025E36A5E59002300220321A06AB04787
:1056D0002000FCF767FEE36A1B6F42460021A06AC8
:1056E0009847E36A1B6EA06A9847E36A5B6B0E21DA
:1056F000A06A9847E36ADB6E4146A06A9847E36A6E
:10570000DB680221A06A9847E36ADB6A3900A06A75
:105710009847E36A9B6EA06A9847E36A9B6EA06A0B
:105720009847E36ADB6A4946A06A9847E36A9B6C3C
:105730000022A921A06A9847E36A5B6B0E21A06A48
:105740009847E36A9B6DA06A9847E36A9B6DA06ADD
:105750009847E36A5D59002300220321A06AA84705
:105760002000FCF71FFEE36A1B6EA06A9847E36AFD
:10577000DB6801214942A06A9847E36ADB6A414637
:10578000A06A98472000FDF719F8FBE6B9682000E9
:10579000FDF7C6FBE36A9B6DA06A9847A82120002D
:1057A000FCF718FEF96800222000FDF7C9FC1AE793
:1057B00030B583B005000C000800083001AA7A213A
:1057C00033F0A6F9011E06D0E368019A2800FFF71E
:1057D000C9FE03B030BD034B034A044904482EF010
:1057E000FFF8C046A0A3031014AA0310A7070000E7
:1057F000009A031010B58C68002C0ED0A3070CD1B2
:10580000FF2362681340032B0DD0162B14D0182BE6
:1058100016D12100FFF7CCFF10BD0C4B0C4A0D49EF
:105820000D482EF0DDF82100FDF75EFBA269138B19
:1058300001210B431383EFE72100FFF7C7FDEBE7DF
:10584000064B034A064904482EF0CAF888A4031000
:105850002CAA0310AE070000009A0310B0A4031096
:10586000BA07000070B504000D00184ADC235B0085
:10587000D358002B00D070BDFCF73EFD060003009E
:105880000122A9682000FDF78FFDE36A9B690122D0
:105890001F21A06A9847E96800290BD1C823E26A52
:1058A000D3580121A06A9847E36ADB6AA06A3100F5
:1058B0009847E0E72000FDF733FBBC23E26AD558A8
:1058C000002300220121A06AA847E7E7706F0320A8
:1058D00070B504008D68002D06D1C823C26AD35864
:1058E000806A0021984770BDAB0704D1FF236A6826
:1058F00013405E2B0AD029002000FDF711FBC823BE
:10590000E26AD358A06A01219847ECE7A968FDF73D
:1059100007FBE9682000FDF703FBC823E26AD358C0
:10592000A06A02219847DEE710B504008968FDF7F8
:10593000F7FAE36A1B6EA06A984710BD10B5040021
:10594000436A1B78072B0DD1896800290ED1C36AE1
:105950005B6B0E31806A9847C423E26AD358A06A11
:10596000984710BD034AFCF747FFFAE7FDF7D8FA5E
:10597000F2E7C046E0A40310F8B5CE46474680B52E
:1059800005000C000F230B40022B39D0002906D054
:105990008B0704D1FF234A6813402C2B34D0002CF2
:1059A00000D1ABE0A30700D0A8E0FF23626813405A
:1059B0002D2B00D0A2E0A468002C00D19EE0A3070C
:1059C00075D12700FF2362681340922B6FD1E368E3
:1059D000002B0CD09A070AD11E005968FF220A40FA
:1059E000952A6BD0962A78D0AC2A00D186E0B96887
:1059F0002800FFF7C1FFF9682800FFF7BDFF82E02C
:105A00000909FDF77CFA7EE08968FDF789FAE76805
:105A1000002F73D0BB0771D1B8467A68FF231340BB
:105A20008E2B14D0FF23424652681340312B2DD0C9
:105A3000322B63D1434699680F230B40022B30D1A0
:105A4000EB6A5B6D0909A86A022298475BE0130ABA
:105A50009946002607E0B31C9B004246995828004F
:105A6000FDF75EFA01364B46013BB342F3DC0233ED
:105A70009B00DB59002B03D09A0701D19846D1E750
:105A8000234B244A244925482DF0AAFF4346996810
:105A90002800FDF745FAEB6A1B6DA86A02219847BA
:105AA00031E01F4B1B4A1F491C482DF099FFF6217E
:105AB0001D4B184A890019482DF092FF9B68002B56
:105AC00004D1A1682800FFF757FF1CE0F821174B0D
:105AD000104A890011482DF083FF0B0A9846A168EF
